{
	"ConstantBondingCurve.sol": {
		"ConstantBondingCurve": {
			"abi": [
				{
					"inputs": [],
					"name": "FUNDING_GOAL",
					"outputs": [
						{
							"internalType": "uint256",
							"name": "",
							"type": "uint256"
						}
					],
					"stateMutability": "view",
					"type": "function"
				},
				{
					"inputs": [],
					"name": "FUNDING_SUPPLY",
					"outputs": [
						{
							"internalType": "uint256",
							"name": "",
							"type": "uint256"
						}
					],
					"stateMutability": "view",
					"type": "function"
				},
				{
					"inputs": [
						{
							"internalType": "uint256",
							"name": "ethAmount",
							"type": "uint256"
						}
					],
					"name": "calculateBuyReturn",
					"outputs": [
						{
							"internalType": "uint256",
							"name": "",
							"type": "uint256"
						}
					],
					"stateMutability": "pure",
					"type": "function"
				},
				{
					"inputs": [
						{
							"internalType": "uint256",
							"name": "tokenAmount",
							"type": "uint256"
						}
					],
					"name": "calculateSellReturn",
					"outputs": [
						{
							"internalType": "uint256",
							"name": "",
							"type": "uint256"
						}
					],
					"stateMutability": "pure",
					"type": "function"
				}
			],
			"devdoc": {
				"details": "A simple constant bonding curve contract for token pricing  This contract implements a linear bonding curve where the price remains constant. The exchange rate is fixed at FUNDING_SUPPLY tokens per FUNDING_GOAL ETH.  Key characteristics: - Linear relationship between ETH and tokens - No slippage or price impact - Fixed exchange rate of 40M tokens per ETH (800M / 20)",
				"kind": "dev",
				"methods": {
					"calculateBuyReturn(uint256)": {
						"details": "Uses simple proportion: tokens = (ethAmount * totalTokens) / totalEth",
						"params": {
							"ethAmount": "Amount of ETH being spent"
						},
						"returns": {
							"_0": "uint256 Number of tokens that can be purchased  Formula: tokenAmount = (ethAmount * FUNDING_SUPPLY) / FUNDING_GOAL Example: 1 ETH = (1 * 800M) / 20 = 40M tokens"
						}
					},
					"calculateSellReturn(uint256)": {
						"details": "Inverse of buy calculation: eth = (tokenAmount * totalEth) / totalTokens",
						"params": {
							"tokenAmount": "Number of tokens being sold"
						},
						"returns": {
							"_0": "uint256 Amount of ETH that will be received  Formula: ethAmount = (tokenAmount * FUNDING_GOAL) / FUNDING_SUPPLY Example: 40M tokens = (40M * 20) / 800M = 1 ETH"
						}
					}
				},
				"stateVariables": {
					"FUNDING_GOAL": {
						"details": "20 ETH funding goal"
					},
					"FUNDING_SUPPLY": {
						"details": "800 million tokens with 18 decimal places"
					}
				},
				"title": "ConstantBondingCurve",
				"version": 1
			},
			"evm": {
				"assembly": "    /* \"ConstantBondingCurve.sol\":498:2041  contract ConstantBondingCurve {... */\n  mstore(0x40, 0x80)\n  callvalue\n  dup1\n  iszero\n  tag_1\n  jumpi\n  revert(0x00, 0x00)\ntag_1:\n  pop\n  dataSize(sub_0)\n  dup1\n  dataOffset(sub_0)\n  0x00\n  codecopy\n  0x00\n  return\nstop\n\nsub_0: assembly {\n        /* \"ConstantBondingCurve.sol\":498:2041  contract ConstantBondingCurve {... */\n      mstore(0x40, 0x80)\n      callvalue\n      dup1\n      iszero\n      tag_1\n      jumpi\n      revert(0x00, 0x00)\n    tag_1:\n      pop\n      jumpi(tag_2, lt(calldatasize, 0x04))\n      shr(0xe0, calldataload(0x00))\n      dup1\n      0x42e49d5a\n      eq\n      tag_3\n      jumpi\n      dup1\n      0x828f3a9c\n      eq\n      tag_4\n      jumpi\n      dup1\n      0xbc3c39cb\n      eq\n      tag_5\n      jumpi\n      dup1\n      0xbfe60856\n      eq\n      tag_6\n      jumpi\n    tag_2:\n      revert(0x00, 0x00)\n        /* \"ConstantBondingCurve.sol\":812:859  uint256 public constant FUNDING_GOAL = 20 ether */\n    tag_3:\n      tag_7\n      tag_8\n      jump\t// in\n    tag_7:\n      mload(0x40)\n      tag_9\n      swap2\n      swap1\n      tag_10\n      jump\t// in\n    tag_9:\n      mload(0x40)\n      dup1\n      swap2\n      sub\n      swap1\n      return\n        /* \"ConstantBondingCurve.sol\":1288:1446  function calculateBuyReturn(... */\n    tag_4:\n      tag_11\n      0x04\n      dup1\n      calldatasize\n      sub\n      dup2\n      add\n      swap1\n      tag_12\n      swap2\n      swap1\n      tag_13\n      jump\t// in\n    tag_12:\n      tag_14\n      jump\t// in\n    tag_11:\n      mload(0x40)\n      tag_15\n      swap2\n      swap1\n      tag_10\n      jump\t// in\n    tag_15:\n      mload(0x40)\n      dup1\n      swap2\n      sub\n      swap1\n      return\n        /* \"ConstantBondingCurve.sol\":1876:2039  function calculateSellReturn(... */\n    tag_5:\n      tag_16\n      0x04\n      dup1\n      calldatasize\n      sub\n      dup2\n      add\n      swap1\n      tag_17\n      swap2\n      swap1\n      tag_13\n      jump\t// in\n    tag_17:\n      tag_18\n      jump\t// in\n    tag_16:\n      mload(0x40)\n      tag_19\n      swap2\n      swap1\n      tag_10\n      jump\t// in\n    tag_19:\n      mload(0x40)\n      dup1\n      swap2\n      sub\n      swap1\n      return\n        /* \"ConstantBondingCurve.sol\":652:710  uint256 public constant FUNDING_SUPPLY = 800_000_000 ether */\n    tag_6:\n      tag_20\n      tag_21\n      jump\t// in\n    tag_20:\n      mload(0x40)\n      tag_22\n      swap2\n      swap1\n      tag_10\n      jump\t// in\n    tag_22:\n      mload(0x40)\n      dup1\n      swap2\n      sub\n      swap1\n      return\n        /* \"ConstantBondingCurve.sol\":812:859  uint256 public constant FUNDING_GOAL = 20 ether */\n    tag_8:\n        /* \"ConstantBondingCurve.sol\":851:859  20 ether */\n      0x01158e460913d00000\n        /* \"ConstantBondingCurve.sol\":812:859  uint256 public constant FUNDING_GOAL = 20 ether */\n      dup2\n      jump\t// out\n        /* \"ConstantBondingCurve.sol\":1288:1446  function calculateBuyReturn(... */\n    tag_14:\n        /* \"ConstantBondingCurve.sol\":1370:1377  uint256 */\n      0x00\n        /* \"ConstantBondingCurve.sol\":851:859  20 ether */\n      0x01158e460913d00000\n        /* \"ConstantBondingCurve.sol\":693:710  800_000_000 ether */\n      0x0295be96e640669720000000\n        /* \"ConstantBondingCurve.sol\":1397:1406  ethAmount */\n      dup4\n        /* \"ConstantBondingCurve.sol\":1397:1423  ethAmount * FUNDING_SUPPLY */\n      tag_24\n      swap2\n      swap1\n      tag_25\n      jump\t// in\n    tag_24:\n        /* \"ConstantBondingCurve.sol\":1396:1439  (ethAmount * FUNDING_SUPPLY) / FUNDING_GOAL */\n      tag_26\n      swap2\n      swap1\n      tag_27\n      jump\t// in\n    tag_26:\n        /* \"ConstantBondingCurve.sol\":1389:1439  return (ethAmount * FUNDING_SUPPLY) / FUNDING_GOAL */\n      swap1\n      pop\n        /* \"ConstantBondingCurve.sol\":1288:1446  function calculateBuyReturn(... */\n      swap2\n      swap1\n      pop\n      jump\t// out\n        /* \"ConstantBondingCurve.sol\":1876:2039  function calculateSellReturn(... */\n    tag_18:\n        /* \"ConstantBondingCurve.sol\":1961:1968  uint256 */\n      0x00\n        /* \"ConstantBondingCurve.sol\":693:710  800_000_000 ether */\n      0x0295be96e640669720000000\n        /* \"ConstantBondingCurve.sol\":851:859  20 ether */\n      0x01158e460913d00000\n        /* \"ConstantBondingCurve.sol\":1988:1999  tokenAmount */\n      dup4\n        /* \"ConstantBondingCurve.sol\":1988:2014  tokenAmount * FUNDING_GOAL */\n      tag_29\n      swap2\n      swap1\n      tag_25\n      jump\t// in\n    tag_29:\n        /* \"ConstantBondingCurve.sol\":1987:2032  (tokenAmount * FUNDING_GOAL) / FUNDING_SUPPLY */\n      tag_30\n      swap2\n      swap1\n      tag_27\n      jump\t// in\n    tag_30:\n        /* \"ConstantBondingCurve.sol\":1980:2032  return (tokenAmount * FUNDING_GOAL) / FUNDING_SUPPLY */\n      swap1\n      pop\n        /* \"ConstantBondingCurve.sol\":1876:2039  function calculateSellReturn(... */\n      swap2\n      swap1\n      pop\n      jump\t// out\n        /* \"ConstantBondingCurve.sol\":652:710  uint256 public constant FUNDING_SUPPLY = 800_000_000 ether */\n    tag_21:\n        /* \"ConstantBondingCurve.sol\":693:710  800_000_000 ether */\n      0x0295be96e640669720000000\n        /* \"ConstantBondingCurve.sol\":652:710  uint256 public constant FUNDING_SUPPLY = 800_000_000 ether */\n      dup2\n      jump\t// out\n        /* \"#utility.yul\":7:84   */\n    tag_31:\n        /* \"#utility.yul\":44:51   */\n      0x00\n        /* \"#utility.yul\":73:78   */\n      dup2\n        /* \"#utility.yul\":62:78   */\n      swap1\n      pop\n        /* \"#utility.yul\":7:84   */\n      swap2\n      swap1\n      pop\n      jump\t// out\n        /* \"#utility.yul\":90:208   */\n    tag_32:\n        /* \"#utility.yul\":177:201   */\n      tag_43\n        /* \"#utility.yul\":195:200   */\n      dup2\n        /* \"#utility.yul\":177:201   */\n      tag_31\n      jump\t// in\n    tag_43:\n        /* \"#utility.yul\":172:175   */\n      dup3\n        /* \"#utility.yul\":165:202   */\n      mstore\n        /* \"#utility.yul\":90:208   */\n      pop\n      pop\n      jump\t// out\n        /* \"#utility.yul\":214:436   */\n    tag_10:\n        /* \"#utility.yul\":307:311   */\n      0x00\n        /* \"#utility.yul\":345:347   */\n      0x20\n        /* \"#utility.yul\":334:343   */\n      dup3\n        /* \"#utility.yul\":330:348   */\n      add\n        /* \"#utility.yul\":322:348   */\n      swap1\n      pop\n        /* \"#utility.yul\":358:429   */\n      tag_45\n        /* \"#utility.yul\":426:427   */\n      0x00\n        /* \"#utility.yul\":415:424   */\n      dup4\n        /* \"#utility.yul\":411:428   */\n      add\n        /* \"#utility.yul\":402:408   */\n      dup5\n        /* \"#utility.yul\":358:429   */\n      tag_32\n      jump\t// in\n    tag_45:\n        /* \"#utility.yul\":214:436   */\n      swap3\n      swap2\n      pop\n      pop\n      jump\t// out\n        /* \"#utility.yul\":523:640   */\n    tag_34:\n        /* \"#utility.yul\":632:633   */\n      0x00\n        /* \"#utility.yul\":629:630   */\n      0x00\n        /* \"#utility.yul\":622:634   */\n      revert\n        /* \"#utility.yul\":769:891   */\n    tag_36:\n        /* \"#utility.yul\":842:866   */\n      tag_50\n        /* \"#utility.yul\":860:865   */\n      dup2\n        /* \"#utility.yul\":842:866   */\n      tag_31\n      jump\t// in\n    tag_50:\n        /* \"#utility.yul\":835:840   */\n      dup2\n        /* \"#utility.yul\":832:867   */\n      eq\n        /* \"#utility.yul\":822:885   */\n      tag_51\n      jumpi\n        /* \"#utility.yul\":881:882   */\n      0x00\n        /* \"#utility.yul\":878:879   */\n      0x00\n        /* \"#utility.yul\":871:883   */\n      revert\n        /* \"#utility.yul\":822:885   */\n    tag_51:\n        /* \"#utility.yul\":769:891   */\n      pop\n      jump\t// out\n        /* \"#utility.yul\":897:1036   */\n    tag_37:\n        /* \"#utility.yul\":943:948   */\n      0x00\n        /* \"#utility.yul\":981:987   */\n      dup2\n        /* \"#utility.yul\":968:988   */\n      calldataload\n        /* \"#utility.yul\":959:988   */\n      swap1\n      pop\n        /* \"#utility.yul\":997:1030   */\n      tag_53\n        /* \"#utility.yul\":1024:1029   */\n      dup2\n        /* \"#utility.yul\":997:1030   */\n      tag_36\n      jump\t// in\n    tag_53:\n        /* \"#utility.yul\":897:1036   */\n      swap3\n      swap2\n      pop\n      pop\n      jump\t// out\n        /* \"#utility.yul\":1042:1371   */\n    tag_13:\n        /* \"#utility.yul\":1101:1107   */\n      0x00\n        /* \"#utility.yul\":1150:1152   */\n      0x20\n        /* \"#utility.yul\":1138:1147   */\n      dup3\n        /* \"#utility.yul\":1129:1136   */\n      dup5\n        /* \"#utility.yul\":1125:1148   */\n      sub\n        /* \"#utility.yul\":1121:1153   */\n      slt\n        /* \"#utility.yul\":1118:1237   */\n      iszero\n      tag_55\n      jumpi\n        /* \"#utility.yul\":1156:1235   */\n      tag_56\n      tag_34\n      jump\t// in\n    tag_56:\n        /* \"#utility.yul\":1118:1237   */\n    tag_55:\n        /* \"#utility.yul\":1276:1277   */\n      0x00\n        /* \"#utility.yul\":1301:1354   */\n      tag_57\n        /* \"#utility.yul\":1346:1353   */\n      dup5\n        /* \"#utility.yul\":1337:1343   */\n      dup3\n        /* \"#utility.yul\":1326:1335   */\n      dup6\n        /* \"#utility.yul\":1322:1344   */\n      add\n        /* \"#utility.yul\":1301:1354   */\n      tag_37\n      jump\t// in\n    tag_57:\n        /* \"#utility.yul\":1291:1354   */\n      swap2\n      pop\n        /* \"#utility.yul\":1247:1364   */\n      pop\n        /* \"#utility.yul\":1042:1371   */\n      swap3\n      swap2\n      pop\n      pop\n      jump\t// out\n        /* \"#utility.yul\":1377:1557   */\n    tag_38:\n        /* \"#utility.yul\":1425:1502   */\n      0x4e487b7100000000000000000000000000000000000000000000000000000000\n        /* \"#utility.yul\":1422:1423   */\n      0x00\n        /* \"#utility.yul\":1415:1503   */\n      mstore\n        /* \"#utility.yul\":1522:1526   */\n      0x11\n        /* \"#utility.yul\":1519:1520   */\n      0x04\n        /* \"#utility.yul\":1512:1527   */\n      mstore\n        /* \"#utility.yul\":1546:1550   */\n      0x24\n        /* \"#utility.yul\":1543:1544   */\n      0x00\n        /* \"#utility.yul\":1536:1551   */\n      revert\n        /* \"#utility.yul\":1563:1973   */\n    tag_25:\n        /* \"#utility.yul\":1603:1610   */\n      0x00\n        /* \"#utility.yul\":1626:1646   */\n      tag_60\n        /* \"#utility.yul\":1644:1645   */\n      dup3\n        /* \"#utility.yul\":1626:1646   */\n      tag_31\n      jump\t// in\n    tag_60:\n        /* \"#utility.yul\":1621:1646   */\n      swap2\n      pop\n        /* \"#utility.yul\":1660:1680   */\n      tag_61\n        /* \"#utility.yul\":1678:1679   */\n      dup4\n        /* \"#utility.yul\":1660:1680   */\n      tag_31\n      jump\t// in\n    tag_61:\n        /* \"#utility.yul\":1655:1680   */\n      swap3\n      pop\n        /* \"#utility.yul\":1715:1716   */\n      dup3\n        /* \"#utility.yul\":1712:1713   */\n      dup3\n        /* \"#utility.yul\":1708:1717   */\n      mul\n        /* \"#utility.yul\":1737:1767   */\n      tag_62\n        /* \"#utility.yul\":1755:1766   */\n      dup2\n        /* \"#utility.yul\":1737:1767   */\n      tag_31\n      jump\t// in\n    tag_62:\n        /* \"#utility.yul\":1726:1767   */\n      swap2\n      pop\n        /* \"#utility.yul\":1916:1917   */\n      dup3\n        /* \"#utility.yul\":1907:1914   */\n      dup3\n        /* \"#utility.yul\":1903:1918   */\n      div\n        /* \"#utility.yul\":1900:1901   */\n      dup5\n        /* \"#utility.yul\":1897:1919   */\n      eq\n        /* \"#utility.yul\":1877:1878   */\n      dup4\n        /* \"#utility.yul\":1870:1879   */\n      iszero\n        /* \"#utility.yul\":1850:1933   */\n      or\n        /* \"#utility.yul\":1827:1966   */\n      tag_63\n      jumpi\n        /* \"#utility.yul\":1946:1964   */\n      tag_64\n      tag_38\n      jump\t// in\n    tag_64:\n        /* \"#utility.yul\":1827:1966   */\n    tag_63:\n        /* \"#utility.yul\":1611:1973   */\n      pop\n        /* \"#utility.yul\":1563:1973   */\n      swap3\n      swap2\n      pop\n      pop\n      jump\t// out\n        /* \"#utility.yul\":1979:2159   */\n    tag_39:\n        /* \"#utility.yul\":2027:2104   */\n      0x4e487b7100000000000000000000000000000000000000000000000000000000\n        /* \"#utility.yul\":2024:2025   */\n      0x00\n        /* \"#utility.yul\":2017:2105   */\n      mstore\n        /* \"#utility.yul\":2124:2128   */\n      0x12\n        /* \"#utility.yul\":2121:2122   */\n      0x04\n        /* \"#utility.yul\":2114:2129   */\n      mstore\n        /* \"#utility.yul\":2148:2152   */\n      0x24\n        /* \"#utility.yul\":2145:2146   */\n      0x00\n        /* \"#utility.yul\":2138:2153   */\n      revert\n        /* \"#utility.yul\":2165:2350   */\n    tag_27:\n        /* \"#utility.yul\":2205:2206   */\n      0x00\n        /* \"#utility.yul\":2222:2242   */\n      tag_67\n        /* \"#utility.yul\":2240:2241   */\n      dup3\n        /* \"#utility.yul\":2222:2242   */\n      tag_31\n      jump\t// in\n    tag_67:\n        /* \"#utility.yul\":2217:2242   */\n      swap2\n      pop\n        /* \"#utility.yul\":2256:2276   */\n      tag_68\n        /* \"#utility.yul\":2274:2275   */\n      dup4\n        /* \"#utility.yul\":2256:2276   */\n      tag_31\n      jump\t// in\n    tag_68:\n        /* \"#utility.yul\":2251:2276   */\n      swap3\n      pop\n        /* \"#utility.yul\":2295:2296   */\n      dup3\n        /* \"#utility.yul\":2285:2320   */\n      tag_69\n      jumpi\n        /* \"#utility.yul\":2300:2318   */\n      tag_70\n      tag_39\n      jump\t// in\n    tag_70:\n        /* \"#utility.yul\":2285:2320   */\n    tag_69:\n        /* \"#utility.yul\":2342:2343   */\n      dup3\n        /* \"#utility.yul\":2339:2340   */\n      dup3\n        /* \"#utility.yul\":2335:2344   */\n      div\n        /* \"#utility.yul\":2330:2344   */\n      swap1\n      pop\n        /* \"#utility.yul\":2165:2350   */\n      swap3\n      swap2\n      pop\n      pop\n      jump\t// out\n\n    auxdata: 0xa26469706673582212202b38eeacb647ce1e9314366c3c91c7a8d5e3a6837c4c0413870b1ac3110fcd5264736f6c634300081e0033\n}\n",
				"bytecode": {
					"linkReferences": {},
					"object": "6080604052348015600e575f5ffd5b506102fa8061001c5f395ff3fe608060405234801561000f575f5ffd5b506004361061004a575f3560e01c806342e49d5a1461004e578063828f3a9c1461006c578063bc3c39cb1461009c578063bfe60856146100cc575b5f5ffd5b6100566100ea565b6040516100639190610187565b60405180910390f35b610086600480360381019061008191906101ce565b6100f7565b6040516100939190610187565b60405180910390f35b6100b660048036038101906100b191906101ce565b61012b565b6040516100c39190610187565b60405180910390f35b6100d461015f565b6040516100e19190610187565b60405180910390f35b6801158e460913d0000081565b5f6801158e460913d000006b0295be96e6406697200000008361011a9190610226565b6101249190610294565b9050919050565b5f6b0295be96e6406697200000006801158e460913d000008361014e9190610226565b6101589190610294565b9050919050565b6b0295be96e64066972000000081565b5f819050919050565b6101818161016f565b82525050565b5f60208201905061019a5f830184610178565b92915050565b5f5ffd5b6101ad8161016f565b81146101b7575f5ffd5b50565b5f813590506101c8816101a4565b92915050565b5f602082840312156101e3576101e26101a0565b5b5f6101f0848285016101ba565b91505092915050565b7f4e487b71000000000000000000000000000000000000000000000000000000005f52601160045260245ffd5b5f6102308261016f565b915061023b8361016f565b92508282026102498161016f565b915082820484148315176102605761025f6101f9565b5b5092915050565b7f4e487b71000000000000000000000000000000000000000000000000000000005f52601260045260245ffd5b5f61029e8261016f565b91506102a98361016f565b9250826102b9576102b8610267565b5b82820490509291505056fea26469706673582212202b38eeacb647ce1e9314366c3c91c7a8d5e3a6837c4c0413870b1ac3110fcd5264736f6c634300081e0033",
					"opcodes": "PUSH1 0x80 PUSH1 0x40 MSTORE CALLVALUE DUP1 ISZERO PUSH1 0xE JUMPI PUSH0 PUSH0 REVERT JUMPDEST POP PUSH2 0x2FA DUP1 PUSH2 0x1C PUSH0 CODECOPY PUSH0 RETURN INVALID PUSH1 0x80 PUSH1 0x40 MSTORE CALLVALUE DUP1 ISZERO PUSH2 0xF JUMPI PUSH0 PUSH0 REVERT JUMPDEST POP PUSH1 0x4 CALLDATASIZE LT PUSH2 0x4A JUMPI PUSH0 CALLDATALOAD PUSH1 0xE0 SHR DUP1 PUSH4 0x42E49D5A EQ PUSH2 0x4E JUMPI DUP1 PUSH4 0x828F3A9C EQ PUSH2 0x6C JUMPI DUP1 PUSH4 0xBC3C39CB EQ PUSH2 0x9C JUMPI DUP1 PUSH4 0xBFE60856 EQ PUSH2 0xCC JUMPI JUMPDEST PUSH0 PUSH0 REVERT JUMPDEST PUSH2 0x56 PUSH2 0xEA JUMP JUMPDEST PUSH1 0x40 MLOAD PUSH2 0x63 SWAP2 SWAP1 PUSH2 0x187 JUMP JUMPDEST PUSH1 0x40 MLOAD DUP1 SWAP2 SUB SWAP1 RETURN JUMPDEST PUSH2 0x86 PUSH1 0x4 DUP1 CALLDATASIZE SUB DUP2 ADD SWAP1 PUSH2 0x81 SWAP2 SWAP1 PUSH2 0x1CE JUMP JUMPDEST PUSH2 0xF7 JUMP JUMPDEST PUSH1 0x40 MLOAD PUSH2 0x93 SWAP2 SWAP1 PUSH2 0x187 JUMP JUMPDEST PUSH1 0x40 MLOAD DUP1 SWAP2 SUB SWAP1 RETURN JUMPDEST PUSH2 0xB6 PUSH1 0x4 DUP1 CALLDATASIZE SUB DUP2 ADD SWAP1 PUSH2 0xB1 SWAP2 SWAP1 PUSH2 0x1CE JUMP JUMPDEST PUSH2 0x12B JUMP JUMPDEST PUSH1 0x40 MLOAD PUSH2 0xC3 SWAP2 SWAP1 PUSH2 0x187 JUMP JUMPDEST PUSH1 0x40 MLOAD DUP1 SWAP2 SUB SWAP1 RETURN JUMPDEST PUSH2 0xD4 PUSH2 0x15F JUMP JUMPDEST PUSH1 0x40 MLOAD PUSH2 0xE1 SWAP2 SWAP1 PUSH2 0x187 JUMP JUMPDEST PUSH1 0x40 MLOAD DUP1 SWAP2 SUB SWAP1 RETURN JUMPDEST PUSH9 0x1158E460913D00000 DUP2 JUMP JUMPDEST PUSH0 PUSH9 0x1158E460913D00000 PUSH12 0x295BE96E640669720000000 DUP4 PUSH2 0x11A SWAP2 SWAP1 PUSH2 0x226 JUMP JUMPDEST PUSH2 0x124 SWAP2 SWAP1 PUSH2 0x294 JUMP JUMPDEST SWAP1 POP SWAP2 SWAP1 POP JUMP JUMPDEST PUSH0 PUSH12 0x295BE96E640669720000000 PUSH9 0x1158E460913D00000 DUP4 PUSH2 0x14E SWAP2 SWAP1 PUSH2 0x226 JUMP JUMPDEST PUSH2 0x158 SWAP2 SWAP1 PUSH2 0x294 JUMP JUMPDEST SWAP1 POP SWAP2 SWAP1 POP JUMP JUMPDEST PUSH12 0x295BE96E640669720000000 DUP2 JUMP JUMPDEST PUSH0 DUP2 SWAP1 POP SWAP2 SWAP1 POP JUMP JUMPDEST PUSH2 0x181 DUP2 PUSH2 0x16F JUMP JUMPDEST DUP3 MSTORE POP POP JUMP JUMPDEST PUSH0 PUSH1 0x20 DUP3 ADD SWAP1 POP PUSH2 0x19A PUSH0 DUP4 ADD DUP5 PUSH2 0x178 JUMP JUMPDEST SWAP3 SWAP2 POP POP JUMP JUMPDEST PUSH0 PUSH0 REVERT JUMPDEST PUSH2 0x1AD DUP2 PUSH2 0x16F JUMP JUMPDEST DUP2 EQ PUSH2 0x1B7 JUMPI PUSH0 PUSH0 REVERT JUMPDEST POP JUMP JUMPDEST PUSH0 DUP2 CALLDATALOAD SWAP1 POP PUSH2 0x1C8 DUP2 PUSH2 0x1A4 JUMP JUMPDEST SWAP3 SWAP2 POP POP JUMP JUMPDEST PUSH0 PUSH1 0x20 DUP3 DUP5 SUB SLT ISZERO PUSH2 0x1E3 JUMPI PUSH2 0x1E2 PUSH2 0x1A0 JUMP JUMPDEST JUMPDEST PUSH0 PUSH2 0x1F0 DUP5 DUP3 DUP6 ADD PUSH2 0x1BA JUMP JUMPDEST SWAP2 POP POP SWAP3 SWAP2 POP POP JUMP JUMPDEST PUSH32 0x4E487B7100000000000000000000000000000000000000000000000000000000 PUSH0 MSTORE PUSH1 0x11 PUSH1 0x4 MSTORE PUSH1 0x24 PUSH0 REVERT JUMPDEST PUSH0 PUSH2 0x230 DUP3 PUSH2 0x16F JUMP JUMPDEST SWAP2 POP PUSH2 0x23B DUP4 PUSH2 0x16F JUMP JUMPDEST SWAP3 POP DUP3 DUP3 MUL PUSH2 0x249 DUP2 PUSH2 0x16F JUMP JUMPDEST SWAP2 POP DUP3 DUP3 DIV DUP5 EQ DUP4 ISZERO OR PUSH2 0x260 JUMPI PUSH2 0x25F PUSH2 0x1F9 JUMP JUMPDEST JUMPDEST POP SWAP3 SWAP2 POP POP JUMP JUMPDEST PUSH32 0x4E487B7100000000000000000000000000000000000000000000000000000000 PUSH0 MSTORE PUSH1 0x12 PUSH1 0x4 MSTORE PUSH1 0x24 PUSH0 REVERT JUMPDEST PUSH0 PUSH2 0x29E DUP3 PUSH2 0x16F JUMP JUMPDEST SWAP2 POP PUSH2 0x2A9 DUP4 PUSH2 0x16F JUMP JUMPDEST SWAP3 POP DUP3 PUSH2 0x2B9 JUMPI PUSH2 0x2B8 PUSH2 0x267 JUMP JUMPDEST JUMPDEST DUP3 DUP3 DIV SWAP1 POP SWAP3 SWAP2 POP POP JUMP INVALID LOG2 PUSH5 0x6970667358 0x22 SLT KECCAK256 0x2B CODESIZE RETURNCONTRACT 0xAC 0xB6 SELFBALANCE 0xCE 0x1E SWAP4 EQ CALLDATASIZE PUSH13 0x3C91C7A8D5E3A6837C4C041387 SIGNEXTEND BYTE 0xC3 GT 0xF 0xCD MSTORE PUSH5 0x736F6C6343 STOP ADDMOD 0x1E STOP CALLER "
				},
				"gasEstimates": {
					"creation": {
						"codeDepositCost": "152400",
						"executionCost": "194",
						"totalCost": "152594"
					},
					"external": {
						"FUNDING_GOAL()": "303",
						"FUNDING_SUPPLY()": "369",
						"calculateBuyReturn(uint256)": "infinite",
						"calculateSellReturn(uint256)": "infinite"
					}
				},
				"methodIdentifiers": {
					"FUNDING_GOAL()": "42e49d5a",
					"FUNDING_SUPPLY()": "bfe60856",
					"calculateBuyReturn(uint256)": "828f3a9c",
					"calculateSellReturn(uint256)": "bc3c39cb"
				}
			},
			"storageLayout": {
				"storage": [],
				"types": null
			},
			"userdoc": {
				"kind": "user",
				"methods": {
					"FUNDING_GOAL()": {
						"notice": "Target ETH amount to raise during funding"
					},
					"FUNDING_SUPPLY()": {
						"notice": "Total token supply available for funding phase"
					},
					"calculateBuyReturn(uint256)": {
						"notice": "Calculate how many tokens can be bought with given ETH amount"
					},
					"calculateSellReturn(uint256)": {
						"notice": "Calculate how much ETH can be received for selling tokens"
					}
				},
				"version": 1
			}
		}
	}
}