{
	"BondingCurve.sol": {
		"BondingCurve": {
			"abi": [
				{
					"inputs": [
						{
							"internalType": "uint256",
							"name": "_a",
							"type": "uint256"
						},
						{
							"internalType": "uint256",
							"name": "_b",
							"type": "uint256"
						}
					],
					"stateMutability": "nonpayable",
					"type": "constructor"
				},
				{
					"inputs": [],
					"name": "A",
					"outputs": [
						{
							"internalType": "uint256",
							"name": "",
							"type": "uint256"
						}
					],
					"stateMutability": "view",
					"type": "function"
				},
				{
					"inputs": [],
					"name": "B",
					"outputs": [
						{
							"internalType": "uint256",
							"name": "",
							"type": "uint256"
						}
					],
					"stateMutability": "view",
					"type": "function"
				},
				{
					"inputs": [
						{
							"internalType": "uint256",
							"name": "x0",
							"type": "uint256"
						},
						{
							"internalType": "uint256",
							"name": "deltaY",
							"type": "uint256"
						}
					],
					"name": "getAmountOut",
					"outputs": [
						{
							"internalType": "uint256",
							"name": "deltaX",
							"type": "uint256"
						}
					],
					"stateMutability": "view",
					"type": "function"
				},
				{
					"inputs": [
						{
							"internalType": "uint256",
							"name": "x0",
							"type": "uint256"
						},
						{
							"internalType": "uint256",
							"name": "deltaX",
							"type": "uint256"
						}
					],
					"name": "getFundsReceived",
					"outputs": [
						{
							"internalType": "uint256",
							"name": "deltaY",
							"type": "uint256"
						}
					],
					"stateMutability": "view",
					"type": "function"
				}
			],
			"devdoc": {
				"kind": "dev",
				"methods": {},
				"version": 1
			},
			"evm": {
				"assembly": "    /* \"BondingCurve.sol\":118:1522  contract BondingCurve {... */\n  mstore(0x40, 0xc0)\n    /* \"BondingCurve.sol\":293:368  constructor(uint256 _a, uint256 _b) {... */\n  callvalue\n  dup1\n  iszero\n  tag_1\n  jumpi\n  revert(0x00, 0x00)\ntag_1:\n  pop\n  mload(0x40)\n  sub(codesize, bytecodeSize)\n  dup1\n  bytecodeSize\n  dup4\n  codecopy\n  dup2\n  dup2\n  add\n  0x40\n  mstore\n  dup2\n  add\n  swap1\n  tag_2\n  swap2\n  swap1\n  tag_3\n  jump\t// in\ntag_2:\n    /* \"BondingCurve.sol\":343:345  _a */\n  dup2\n    /* \"BondingCurve.sol\":339:345  A = _a */\n  0x80\n  dup2\n  dup2\n  mstore\n  pop\n  pop\n    /* \"BondingCurve.sol\":359:361  _b */\n  dup1\n    /* \"BondingCurve.sol\":355:361  B = _b */\n  0xa0\n  dup2\n  dup2\n  mstore\n  pop\n  pop\n    /* \"BondingCurve.sol\":293:368  constructor(uint256 _a, uint256 _b) {... */\n  pop\n  pop\n    /* \"BondingCurve.sol\":118:1522  contract BondingCurve {... */\n  jump(tag_6)\n    /* \"#utility.yul\":88:205   */\ntag_8:\n    /* \"#utility.yul\":197:198   */\n  0x00\n    /* \"#utility.yul\":194:195   */\n  0x00\n    /* \"#utility.yul\":187:199   */\n  revert\n    /* \"#utility.yul\":334:411   */\ntag_10:\n    /* \"#utility.yul\":371:378   */\n  0x00\n    /* \"#utility.yul\":400:405   */\n  dup2\n    /* \"#utility.yul\":389:405   */\n  swap1\n  pop\n    /* \"#utility.yul\":334:411   */\n  swap2\n  swap1\n  pop\n  jump\t// out\n    /* \"#utility.yul\":417:539   */\ntag_11:\n    /* \"#utility.yul\":490:514   */\n  tag_19\n    /* \"#utility.yul\":508:513   */\n  dup2\n    /* \"#utility.yul\":490:514   */\n  tag_10\n  jump\t// in\ntag_19:\n    /* \"#utility.yul\":483:488   */\n  dup2\n    /* \"#utility.yul\":480:515   */\n  eq\n    /* \"#utility.yul\":470:533   */\n  tag_20\n  jumpi\n    /* \"#utility.yul\":529:530   */\n  0x00\n    /* \"#utility.yul\":526:527   */\n  0x00\n    /* \"#utility.yul\":519:531   */\n  revert\n    /* \"#utility.yul\":470:533   */\ntag_20:\n    /* \"#utility.yul\":417:539   */\n  pop\n  jump\t// out\n    /* \"#utility.yul\":545:688   */\ntag_12:\n    /* \"#utility.yul\":602:607   */\n  0x00\n    /* \"#utility.yul\":633:639   */\n  dup2\n    /* \"#utility.yul\":627:640   */\n  mload\n    /* \"#utility.yul\":618:640   */\n  swap1\n  pop\n    /* \"#utility.yul\":649:682   */\n  tag_22\n    /* \"#utility.yul\":676:681   */\n  dup2\n    /* \"#utility.yul\":649:682   */\n  tag_11\n  jump\t// in\ntag_22:\n    /* \"#utility.yul\":545:688   */\n  swap3\n  swap2\n  pop\n  pop\n  jump\t// out\n    /* \"#utility.yul\":694:1201   */\ntag_3:\n    /* \"#utility.yul\":773:779   */\n  0x00\n    /* \"#utility.yul\":781:787   */\n  0x00\n    /* \"#utility.yul\":830:832   */\n  0x40\n    /* \"#utility.yul\":818:827   */\n  dup4\n    /* \"#utility.yul\":809:816   */\n  dup6\n    /* \"#utility.yul\":805:828   */\n  sub\n    /* \"#utility.yul\":801:833   */\n  slt\n    /* \"#utility.yul\":798:917   */\n  iszero\n  tag_24\n  jumpi\n    /* \"#utility.yul\":836:915   */\n  tag_25\n  tag_8\n  jump\t// in\ntag_25:\n    /* \"#utility.yul\":798:917   */\ntag_24:\n    /* \"#utility.yul\":956:957   */\n  0x00\n    /* \"#utility.yul\":981:1045   */\n  tag_26\n    /* \"#utility.yul\":1037:1044   */\n  dup6\n    /* \"#utility.yul\":1028:1034   */\n  dup3\n    /* \"#utility.yul\":1017:1026   */\n  dup7\n    /* \"#utility.yul\":1013:1035   */\n  add\n    /* \"#utility.yul\":981:1045   */\n  tag_12\n  jump\t// in\ntag_26:\n    /* \"#utility.yul\":971:1045   */\n  swap3\n  pop\n    /* \"#utility.yul\":927:1055   */\n  pop\n    /* \"#utility.yul\":1094:1096   */\n  0x20\n    /* \"#utility.yul\":1120:1184   */\n  tag_27\n    /* \"#utility.yul\":1176:1183   */\n  dup6\n    /* \"#utility.yul\":1167:1173   */\n  dup3\n    /* \"#utility.yul\":1156:1165   */\n  dup7\n    /* \"#utility.yul\":1152:1174   */\n  add\n    /* \"#utility.yul\":1120:1184   */\n  tag_12\n  jump\t// in\ntag_27:\n    /* \"#utility.yul\":1110:1184   */\n  swap2\n  pop\n    /* \"#utility.yul\":1065:1194   */\n  pop\n    /* \"#utility.yul\":694:1201   */\n  swap3\n  pop\n  swap3\n  swap1\n  pop\n  jump\t// out\n    /* \"BondingCurve.sol\":118:1522  contract BondingCurve {... */\ntag_6:\n  mload(0x80)\n  mload(0xa0)\n  codecopy(0x00, dataOffset(sub_0), dataSize(sub_0))\n  0x00\n  assignImmutable(\"0x789bcdf275fa270780a52ae3b79bb1ce0fda7e0aaad87b57b74bb99ac290714a\")\n  0x00\n  assignImmutable(\"0x7880aec93413f117ef14bd4e6d130875ab2c7d7d55a064fac3c2f7bd51516380\")\n  return(0x00, dataSize(sub_0))\nstop\n\nsub_0: assembly {\n        /* \"BondingCurve.sol\":118:1522  contract BondingCurve {... */\n      mstore(0x40, 0x80)\n      callvalue\n      dup1\n      iszero\n      tag_1\n      jumpi\n      revert(0x00, 0x00)\n    tag_1:\n      pop\n      jumpi(tag_2, lt(calldatasize, 0x04))\n      shr(0xe0, calldataload(0x00))\n      dup1\n      0x32e7c5bf\n      eq\n      tag_3\n      jumpi\n      dup1\n      0x7cabb7cf\n      eq\n      tag_4\n      jumpi\n      dup1\n      0x901ce73e\n      eq\n      tag_5\n      jumpi\n      dup1\n      0xf446c1d0\n      eq\n      tag_6\n      jumpi\n    tag_2:\n      revert(0x00, 0x00)\n        /* \"BondingCurve.sol\":260:286  uint256 public immutable B */\n    tag_3:\n      tag_7\n      tag_8\n      jump\t// in\n    tag_7:\n      mload(0x40)\n      tag_9\n      swap2\n      swap1\n      tag_10\n      jump\t// in\n    tag_9:\n      mload(0x40)\n      dup1\n      swap2\n      sub\n      swap1\n      return\n        /* \"BondingCurve.sol\":1051:1520  function getAmountOut(... */\n    tag_4:\n      tag_11\n      0x04\n      dup1\n      calldatasize\n      sub\n      dup2\n      add\n      swap1\n      tag_12\n      swap2\n      swap1\n      tag_13\n      jump\t// in\n    tag_12:\n      tag_14\n      jump\t// in\n    tag_11:\n      mload(0x40)\n      tag_15\n      swap2\n      swap1\n      tag_10\n      jump\t// in\n    tag_15:\n      mload(0x40)\n      dup1\n      swap2\n      sub\n      swap1\n      return\n        /* \"BondingCurve.sol\":436:958  function getFundsReceived(... */\n    tag_5:\n      tag_16\n      0x04\n      dup1\n      calldatasize\n      sub\n      dup2\n      add\n      swap1\n      tag_17\n      swap2\n      swap1\n      tag_13\n      jump\t// in\n    tag_17:\n      tag_18\n      jump\t// in\n    tag_16:\n      mload(0x40)\n      tag_19\n      swap2\n      swap1\n      tag_10\n      jump\t// in\n    tag_19:\n      mload(0x40)\n      dup1\n      swap2\n      sub\n      swap1\n      return\n        /* \"BondingCurve.sol\":228:254  uint256 public immutable A */\n    tag_6:\n      tag_20\n      tag_21\n      jump\t// in\n    tag_20:\n      mload(0x40)\n      tag_22\n      swap2\n      swap1\n      tag_10\n      jump\t// in\n    tag_22:\n      mload(0x40)\n      dup1\n      swap2\n      sub\n      swap1\n      return\n        /* \"BondingCurve.sol\":260:286  uint256 public immutable B */\n    tag_8:\n      immutable(\"0x789bcdf275fa270780a52ae3b79bb1ce0fda7e0aaad87b57b74bb99ac290714a\")\n      dup2\n      jump\t// out\n        /* \"BondingCurve.sol\":1051:1520  function getAmountOut(... */\n    tag_14:\n        /* \"BondingCurve.sol\":1144:1158  uint256 deltaX */\n      0x00\n        /* \"BondingCurve.sol\":1170:1179  uint256 a */\n      0x00\n        /* \"BondingCurve.sol\":1182:1183  A */\n      immutable(\"0x7880aec93413f117ef14bd4e6d130875ab2c7d7d55a064fac3c2f7bd51516380\")\n        /* \"BondingCurve.sol\":1170:1183  uint256 a = A */\n      swap1\n      pop\n        /* \"BondingCurve.sol\":1193:1202  uint256 b */\n      0x00\n        /* \"BondingCurve.sol\":1205:1206  B */\n      immutable(\"0x789bcdf275fa270780a52ae3b79bb1ce0fda7e0aaad87b57b74bb99ac290714a\")\n        /* \"BondingCurve.sol\":1193:1206  uint256 b = B */\n      swap1\n      pop\n        /* \"BondingCurve.sol\":1247:1263  uint256 exp_b_x0 */\n      0x00\n        /* \"BondingCurve.sol\":1274:1305  (int256(b.mulWad(x0))).expWad() */\n      tag_24\n        /* \"BondingCurve.sol\":1282:1294  b.mulWad(x0) */\n      tag_25\n        /* \"BondingCurve.sol\":1291:1293  x0 */\n      dup8\n        /* \"BondingCurve.sol\":1282:1283  b */\n      dup5\n        /* \"BondingCurve.sol\":1282:1290  b.mulWad */\n      tag_26\n      swap1\n        /* \"BondingCurve.sol\":1282:1294  b.mulWad(x0) */\n      swap2\n      swap1\n      0xffffffff\n      and\n      jump\t// in\n    tag_25:\n        /* \"BondingCurve.sol\":1274:1303  (int256(b.mulWad(x0))).expWad */\n      tag_27\n        /* \"BondingCurve.sol\":1274:1305  (int256(b.mulWad(x0))).expWad() */\n      jump\t// in\n    tag_24:\n        /* \"BondingCurve.sol\":1247:1306  uint256 exp_b_x0 = uint256((int256(b.mulWad(x0))).expWad()) */\n      swap1\n      pop\n        /* \"BondingCurve.sol\":1359:1375  uint256 exp_b_x1 */\n      0x00\n        /* \"BondingCurve.sol\":1389:1412  deltaY.fullMulDiv(b, a) */\n      tag_28\n        /* \"BondingCurve.sol\":1407:1408  b */\n      dup4\n        /* \"BondingCurve.sol\":1410:1411  a */\n      dup6\n        /* \"BondingCurve.sol\":1389:1395  deltaY */\n      dup9\n        /* \"BondingCurve.sol\":1389:1406  deltaY.fullMulDiv */\n      tag_29\n      swap1\n        /* \"BondingCurve.sol\":1389:1412  deltaY.fullMulDiv(b, a) */\n      swap3\n      swap2\n      swap1\n      0xffffffff\n      and\n      jump\t// in\n    tag_28:\n        /* \"BondingCurve.sol\":1378:1386  exp_b_x0 */\n      dup3\n        /* \"BondingCurve.sol\":1378:1412  exp_b_x0 + deltaY.fullMulDiv(b, a) */\n      tag_30\n      swap2\n      swap1\n      tag_31\n      jump\t// in\n    tag_30:\n        /* \"BondingCurve.sol\":1359:1412  uint256 exp_b_x1 = exp_b_x0 + deltaY.fullMulDiv(b, a) */\n      swap1\n      pop\n        /* \"BondingCurve.sol\":1511:1513  x0 */\n      dup7\n        /* \"BondingCurve.sol\":1465:1508  uint256(int256(exp_b_x1).lnWad()).divWad(b) */\n      tag_32\n        /* \"BondingCurve.sol\":1506:1507  b */\n      dup5\n        /* \"BondingCurve.sol\":1473:1497  int256(exp_b_x1).lnWad() */\n      tag_33\n        /* \"BondingCurve.sol\":1480:1488  exp_b_x1 */\n      dup5\n        /* \"BondingCurve.sol\":1473:1495  int256(exp_b_x1).lnWad */\n      tag_34\n        /* \"BondingCurve.sol\":1473:1497  int256(exp_b_x1).lnWad() */\n      jump\t// in\n    tag_33:\n        /* \"BondingCurve.sol\":1465:1505  uint256(int256(exp_b_x1).lnWad()).divWad */\n      tag_35\n      swap1\n        /* \"BondingCurve.sol\":1465:1508  uint256(int256(exp_b_x1).lnWad()).divWad(b) */\n      swap2\n      swap1\n      0xffffffff\n      and\n      jump\t// in\n    tag_32:\n        /* \"BondingCurve.sol\":1465:1513  uint256(int256(exp_b_x1).lnWad()).divWad(b) - x0 */\n      tag_36\n      swap2\n      swap1\n      tag_37\n      jump\t// in\n    tag_36:\n        /* \"BondingCurve.sol\":1456:1513  deltaX = uint256(int256(exp_b_x1).lnWad()).divWad(b) - x0 */\n      swap5\n      pop\n        /* \"BondingCurve.sol\":1160:1520  {... */\n      pop\n      pop\n      pop\n      pop\n        /* \"BondingCurve.sol\":1051:1520  function getAmountOut(... */\n      swap3\n      swap2\n      pop\n      pop\n      jump\t// out\n        /* \"BondingCurve.sol\":436:958  function getFundsReceived(... */\n    tag_18:\n        /* \"BondingCurve.sol\":533:547  uint256 deltaY */\n      0x00\n        /* \"BondingCurve.sol\":559:568  uint256 a */\n      0x00\n        /* \"BondingCurve.sol\":571:572  A */\n      immutable(\"0x7880aec93413f117ef14bd4e6d130875ab2c7d7d55a064fac3c2f7bd51516380\")\n        /* \"BondingCurve.sol\":559:572  uint256 a = A */\n      swap1\n      pop\n        /* \"BondingCurve.sol\":582:591  uint256 b */\n      0x00\n        /* \"BondingCurve.sol\":594:595  B */\n      immutable(\"0x789bcdf275fa270780a52ae3b79bb1ce0fda7e0aaad87b57b74bb99ac290714a\")\n        /* \"BondingCurve.sol\":582:595  uint256 b = B */\n      swap1\n      pop\n        /* \"BondingCurve.sol\":619:625  deltaX */\n      dup4\n        /* \"BondingCurve.sol\":613:615  x0 */\n      dup6\n        /* \"BondingCurve.sol\":613:625  x0 >= deltaX */\n      lt\n      iszero\n        /* \"BondingCurve.sol\":605:626  require(x0 >= deltaX) */\n      tag_39\n      jumpi\n      revert(0x00, 0x00)\n    tag_39:\n        /* \"BondingCurve.sol\":678:693  int256 exp_b_x0 */\n      0x00\n        /* \"BondingCurve.sol\":696:727  (int256(b.mulWad(x0))).expWad() */\n      tag_40\n        /* \"BondingCurve.sol\":704:716  b.mulWad(x0) */\n      tag_41\n        /* \"BondingCurve.sol\":713:715  x0 */\n      dup8\n        /* \"BondingCurve.sol\":704:705  b */\n      dup5\n        /* \"BondingCurve.sol\":704:712  b.mulWad */\n      tag_26\n      swap1\n        /* \"BondingCurve.sol\":704:716  b.mulWad(x0) */\n      swap2\n      swap1\n      0xffffffff\n      and\n      jump\t// in\n    tag_41:\n        /* \"BondingCurve.sol\":696:725  (int256(b.mulWad(x0))).expWad */\n      tag_27\n        /* \"BondingCurve.sol\":696:727  (int256(b.mulWad(x0))).expWad() */\n      jump\t// in\n    tag_40:\n        /* \"BondingCurve.sol\":678:727  int256 exp_b_x0 = (int256(b.mulWad(x0))).expWad() */\n      swap1\n      pop\n        /* \"BondingCurve.sol\":737:752  int256 exp_b_x1 */\n      0x00\n        /* \"BondingCurve.sol\":755:795  (int256(b.mulWad(x0 - deltaX))).expWad() */\n      tag_42\n        /* \"BondingCurve.sol\":763:784  b.mulWad(x0 - deltaX) */\n      tag_43\n        /* \"BondingCurve.sol\":777:783  deltaX */\n      dup8\n        /* \"BondingCurve.sol\":772:774  x0 */\n      dup10\n        /* \"BondingCurve.sol\":772:783  x0 - deltaX */\n      tag_44\n      swap2\n      swap1\n      tag_37\n      jump\t// in\n    tag_44:\n        /* \"BondingCurve.sol\":763:764  b */\n      dup6\n        /* \"BondingCurve.sol\":763:771  b.mulWad */\n      tag_26\n      swap1\n        /* \"BondingCurve.sol\":763:784  b.mulWad(x0 - deltaX) */\n      swap2\n      swap1\n      0xffffffff\n      and\n      jump\t// in\n    tag_43:\n        /* \"BondingCurve.sol\":755:793  (int256(b.mulWad(x0 - deltaX))).expWad */\n      tag_27\n        /* \"BondingCurve.sol\":755:795  (int256(b.mulWad(x0 - deltaX))).expWad() */\n      jump\t// in\n    tag_42:\n        /* \"BondingCurve.sol\":737:795  int256 exp_b_x1 = (int256(b.mulWad(x0 - deltaX))).expWad() */\n      swap1\n      pop\n        /* \"BondingCurve.sol\":866:879  uint256 delta */\n      0x00\n        /* \"BondingCurve.sol\":901:909  exp_b_x1 */\n      dup2\n        /* \"BondingCurve.sol\":890:898  exp_b_x0 */\n      dup4\n        /* \"BondingCurve.sol\":890:909  exp_b_x0 - exp_b_x1 */\n      tag_45\n      swap2\n      swap1\n      tag_46\n      jump\t// in\n    tag_45:\n        /* \"BondingCurve.sol\":866:910  uint256 delta = uint256(exp_b_x0 - exp_b_x1) */\n      swap1\n      pop\n        /* \"BondingCurve.sol\":929:951  a.fullMulDiv(delta, b) */\n      tag_47\n        /* \"BondingCurve.sol\":942:947  delta */\n      dup2\n        /* \"BondingCurve.sol\":949:950  b */\n      dup6\n        /* \"BondingCurve.sol\":929:930  a */\n      dup8\n        /* \"BondingCurve.sol\":929:941  a.fullMulDiv */\n      tag_29\n      swap1\n        /* \"BondingCurve.sol\":929:951  a.fullMulDiv(delta, b) */\n      swap3\n      swap2\n      swap1\n      0xffffffff\n      and\n      jump\t// in\n    tag_47:\n        /* \"BondingCurve.sol\":920:951  deltaY = a.fullMulDiv(delta, b) */\n      swap6\n      pop\n        /* \"BondingCurve.sol\":549:958  {... */\n      pop\n      pop\n      pop\n      pop\n      pop\n        /* \"BondingCurve.sol\":436:958  function getFundsReceived(... */\n      swap3\n      swap2\n      pop\n      pop\n      jump\t// out\n        /* \"BondingCurve.sol\":228:254  uint256 public immutable A */\n    tag_21:\n      immutable(\"0x7880aec93413f117ef14bd4e6d130875ab2c7d7d55a064fac3c2f7bd51516380\")\n      dup2\n      jump\t// out\n        /* \"FixedPointMathLib.sol\":2809:3274  function mulWad(uint256 x, uint256 y) internal pure returns (uint256 z) {... */\n    tag_26:\n        /* \"FixedPointMathLib.sol\":2870:2879  uint256 z */\n      0x00\n        /* \"FixedPointMathLib.sol\":3056:3057  y */\n      dup2\n        /* \"FixedPointMathLib.sol\":3052:3053  0 */\n      0x00\n        /* \"FixedPointMathLib.sol\":3048:3054  not(0) */\n      not\n        /* \"FixedPointMathLib.sol\":3044:3058  div(not(0), y) */\n      div\n        /* \"FixedPointMathLib.sol\":3041:3042  x */\n      dup4\n        /* \"FixedPointMathLib.sol\":3038:3059  gt(x, div(not(0), y)) */\n      gt\n        /* \"FixedPointMathLib.sol\":3035:3221  if gt(x, div(not(0), y)) {... */\n      iszero\n      tag_49\n      jumpi\n        /* \"FixedPointMathLib.sol\":3081:3082  y */\n      dup2\n        /* \"FixedPointMathLib.sol\":3078:3207  if y {... */\n      iszero\n      tag_50\n      jumpi\n        /* \"FixedPointMathLib.sol\":3118:3128  0xbac65e5b */\n      0xbac65e5b\n        /* \"FixedPointMathLib.sol\":3112:3116  0x00 */\n      0x00\n        /* \"FixedPointMathLib.sol\":3105:3129  mstore(0x00, 0xbac65e5b) */\n      mstore\n        /* \"FixedPointMathLib.sol\":3184:3188  0x04 */\n      0x04\n        /* \"FixedPointMathLib.sol\":3178:3182  0x1c */\n      0x1c\n        /* \"FixedPointMathLib.sol\":3171:3189  revert(0x1c, 0x04) */\n      revert\n        /* \"FixedPointMathLib.sol\":3078:3207  if y {... */\n    tag_50:\n        /* \"FixedPointMathLib.sol\":3035:3221  if gt(x, div(not(0), y)) {... */\n    tag_49:\n        /* \"FixedPointMathLib.sol\":3254:3257  WAD */\n      0x0de0b6b3a7640000\n        /* \"FixedPointMathLib.sol\":3250:3251  y */\n      dup3\n        /* \"FixedPointMathLib.sol\":3247:3248  x */\n      dup5\n        /* \"FixedPointMathLib.sol\":3243:3252  mul(x, y) */\n      mul\n        /* \"FixedPointMathLib.sol\":3239:3258  div(mul(x, y), WAD) */\n      div\n        /* \"FixedPointMathLib.sol\":3234:3258  z := div(mul(x, y), WAD) */\n      swap1\n      pop\n        /* \"FixedPointMathLib.sol\":2809:3274  function mulWad(uint256 x, uint256 y) internal pure returns (uint256 z) {... */\n      swap3\n      swap2\n      pop\n      pop\n      jump\t// out\n        /* \"FixedPointMathLib.sol\":8406:11848  function expWad(int256 x) internal pure returns (int256 r) {... */\n    tag_27:\n        /* \"FixedPointMathLib.sol\":8455:8463  int256 r */\n      0x00\n        /* \"FixedPointMathLib.sol\":8644:8665  -41446531673892822313 */\n      0xfffffffffffffffffffffffffffffffffffffffffffffffdc0d0570925a462d7\n        /* \"FixedPointMathLib.sol\":8639:8640  x */\n      dup3\n        /* \"FixedPointMathLib.sol\":8639:8665  x <= -41446531673892822313 */\n      sgt\n        /* \"FixedPointMathLib.sol\":8635:8675  if (x <= -41446531673892822313) return r */\n      iszero\n        /* \"FixedPointMathLib.sol\":8667:8675  return r */\n      tag_51\n        /* \"FixedPointMathLib.sol\":8635:8675  if (x <= -41446531673892822313) return r */\n      jumpi\n        /* \"FixedPointMathLib.sol\":8981:9002  135305999368893231589 */\n      0x0755bf798b4a1bf1e5\n        /* \"FixedPointMathLib.sol\":8978:8979  x */\n      dup3\n        /* \"FixedPointMathLib.sol\":8974:9003  slt(x, 135305999368893231589) */\n      slt\n        /* \"FixedPointMathLib.sol\":8964:9128  if iszero(slt(x, 135305999368893231589)) {... */\n      tag_53\n      jumpi\n        /* \"FixedPointMathLib.sol\":9040:9050  0xa37bfec9 */\n      0xa37bfec9\n        /* \"FixedPointMathLib.sol\":9034:9038  0x00 */\n      0x00\n        /* \"FixedPointMathLib.sol\":9027:9051  mstore(0x00, 0xa37bfec9) */\n      mstore\n        /* \"FixedPointMathLib.sol\":9105:9109  0x04 */\n      0x04\n        /* \"FixedPointMathLib.sol\":9099:9103  0x1c */\n      0x1c\n        /* \"FixedPointMathLib.sol\":9092:9110  revert(0x1c, 0x04) */\n      revert\n        /* \"FixedPointMathLib.sol\":8964:9128  if iszero(slt(x, 135305999368893231589)) {... */\n    tag_53:\n        /* \"FixedPointMathLib.sol\":9420:9427  5 ** 18 */\n      0x03782dace9d9\n        /* \"FixedPointMathLib.sol\":9414:9416  78 */\n      0x4e\n        /* \"FixedPointMathLib.sol\":9409:9410  x */\n      dup4\n        /* \"FixedPointMathLib.sol\":9409:9416  x << 78 */\n      swap1\n      shl\n        /* \"FixedPointMathLib.sol\":9408:9427  (x << 78) / 5 ** 18 */\n      dup2\n      tag_54\n      jumpi\n      tag_55\n      tag_56\n      jump\t// in\n    tag_55:\n    tag_54:\n      sdiv\n        /* \"FixedPointMathLib.sol\":9404:9427  x = (x << 78) / 5 ** 18 */\n      swap2\n      pop\n        /* \"FixedPointMathLib.sol\":9691:9699  int256 k */\n      0x00\n        /* \"FixedPointMathLib.sol\":9759:9761  96 */\n      0x60\n        /* \"FixedPointMathLib.sol\":9747:9754  2 ** 95 */\n      0x800000000000000000000000\n        /* \"FixedPointMathLib.sol\":9715:9744  54916777467707473351141471128 */\n      0xb17217f7d1cf79abc9e3b398\n        /* \"FixedPointMathLib.sol\":9709:9711  96 */\n      0x60\n        /* \"FixedPointMathLib.sol\":9704:9705  x */\n      dup7\n        /* \"FixedPointMathLib.sol\":9704:9711  x << 96 */\n      swap1\n      shl\n        /* \"FixedPointMathLib.sol\":9703:9744  (x << 96) / 54916777467707473351141471128 */\n      dup2\n      tag_57\n      jumpi\n      tag_58\n      tag_56\n      jump\t// in\n    tag_58:\n    tag_57:\n      sdiv\n        /* \"FixedPointMathLib.sol\":9703:9754  (x << 96) / 54916777467707473351141471128 + 2 ** 95 */\n      add\n        /* \"FixedPointMathLib.sol\":9702:9761  ((x << 96) / 54916777467707473351141471128 + 2 ** 95) >> 96 */\n      swap1\n      sar\n        /* \"FixedPointMathLib.sol\":9691:9761  int256 k = ((x << 96) / 54916777467707473351141471128 + 2 ** 95) >> 96 */\n      swap1\n      pop\n        /* \"FixedPointMathLib.sol\":9787:9816  54916777467707473351141471128 */\n      0xb17217f7d1cf79abc9e3b398\n        /* \"FixedPointMathLib.sol\":9783:9784  k */\n      dup2\n        /* \"FixedPointMathLib.sol\":9783:9816  k * 54916777467707473351141471128 */\n      mul\n        /* \"FixedPointMathLib.sol\":9779:9780  x */\n      dup4\n        /* \"FixedPointMathLib.sol\":9779:9816  x - k * 54916777467707473351141471128 */\n      sub\n        /* \"FixedPointMathLib.sol\":9775:9816  x = x - k * 54916777467707473351141471128 */\n      swap3\n      pop\n        /* \"FixedPointMathLib.sol\":10023:10031  int256 y */\n      0x00\n        /* \"FixedPointMathLib.sol\":10038:10069  1346386616545796478920950773328 */\n      0x10fe68e7fd37d0007b713f7650\n        /* \"FixedPointMathLib.sol\":10034:10035  x */\n      dup5\n        /* \"FixedPointMathLib.sol\":10034:10069  x + 1346386616545796478920950773328 */\n      add\n        /* \"FixedPointMathLib.sol\":10023:10069  int256 y = x + 1346386616545796478920950773328 */\n      swap1\n      pop\n        /* \"FixedPointMathLib.sol\":10105:10137  57155421227552351082224309758442 */\n      0x02d16720577bd19bf614176fe9ea\n        /* \"FixedPointMathLib.sol\":10099:10101  96 */\n      0x60\n        /* \"FixedPointMathLib.sol\":10093:10094  x */\n      dup6\n        /* \"FixedPointMathLib.sol\":10089:10090  y */\n      dup4\n        /* \"FixedPointMathLib.sol\":10089:10094  y * x */\n      mul\n        /* \"FixedPointMathLib.sol\":10088:10101  (y * x) >> 96 */\n      swap1\n      sar\n        /* \"FixedPointMathLib.sol\":10087:10137  ((y * x) >> 96) + 57155421227552351082224309758442 */\n      add\n        /* \"FixedPointMathLib.sol\":10083:10137  y = ((y * x) >> 96) + 57155421227552351082224309758442 */\n      swap1\n      pop\n        /* \"FixedPointMathLib.sol\":10151:10159  int256 p */\n      0x00\n        /* \"FixedPointMathLib.sol\":10170:10202  94201549194550492254356042504812 */\n      0x04a4fd9f2a8b96949216d2255a6c\n        /* \"FixedPointMathLib.sol\":10166:10167  x */\n      dup6\n        /* \"FixedPointMathLib.sol\":10162:10163  y */\n      dup4\n        /* \"FixedPointMathLib.sol\":10162:10167  y + x */\n      add\n        /* \"FixedPointMathLib.sol\":10162:10202  y + x - 94201549194550492254356042504812 */\n      sub\n        /* \"FixedPointMathLib.sol\":10151:10202  int256 p = y + x - 94201549194550492254356042504812 */\n      swap1\n      pop\n        /* \"FixedPointMathLib.sol\":10238:10273  28719021644029726153956944680412240 */\n      0x0587f503bb6ea29d25fcb740196450\n        /* \"FixedPointMathLib.sol\":10232:10234  96 */\n      0x60\n        /* \"FixedPointMathLib.sol\":10226:10227  y */\n      dup4\n        /* \"FixedPointMathLib.sol\":10222:10223  p */\n      dup4\n        /* \"FixedPointMathLib.sol\":10222:10227  p * y */\n      mul\n        /* \"FixedPointMathLib.sol\":10221:10234  (p * y) >> 96 */\n      swap1\n      sar\n        /* \"FixedPointMathLib.sol\":10220:10273  ((p * y) >> 96) + 28719021644029726153956944680412240 */\n      add\n        /* \"FixedPointMathLib.sol\":10216:10273  p = ((p * y) >> 96) + 28719021644029726153956944680412240 */\n      swap1\n      pop\n        /* \"FixedPointMathLib.sol\":10300:10340  4385272521454847904659076985693276 << 96 */\n      0xd835ebba824c98fb31b83b2ca45c000000000000000000000000\n        /* \"FixedPointMathLib.sol\":10295:10296  x */\n      dup6\n        /* \"FixedPointMathLib.sol\":10291:10292  p */\n      dup3\n        /* \"FixedPointMathLib.sol\":10291:10296  p * x */\n      mul\n        /* \"FixedPointMathLib.sol\":10291:10341  p * x + (4385272521454847904659076985693276 << 96) */\n      add\n        /* \"FixedPointMathLib.sol\":10287:10341  p = p * x + (4385272521454847904659076985693276 << 96) */\n      swap1\n      pop\n        /* \"FixedPointMathLib.sol\":10457:10465  int256 q */\n      0x00\n        /* \"FixedPointMathLib.sol\":10472:10503  2855989394907223263936484059900 */\n      0x240c330e9fb2d9cbaf0fd5aafc\n        /* \"FixedPointMathLib.sol\":10468:10469  x */\n      dup7\n        /* \"FixedPointMathLib.sol\":10468:10503  x - 2855989394907223263936484059900 */\n      sub\n        /* \"FixedPointMathLib.sol\":10457:10503  int256 q = x - 2855989394907223263936484059900 */\n      swap1\n      pop\n        /* \"FixedPointMathLib.sol\":10539:10571  50020603652535783019961831881945 */\n      0x0277594991cfc85f6e2461837cd9\n        /* \"FixedPointMathLib.sol\":10533:10535  96 */\n      0x60\n        /* \"FixedPointMathLib.sol\":10527:10528  x */\n      dup8\n        /* \"FixedPointMathLib.sol\":10523:10524  q */\n      dup4\n        /* \"FixedPointMathLib.sol\":10523:10528  q * x */\n      mul\n        /* \"FixedPointMathLib.sol\":10522:10535  (q * x) >> 96 */\n      swap1\n      sar\n        /* \"FixedPointMathLib.sol\":10521:10571  ((q * x) >> 96) + 50020603652535783019961831881945 */\n      add\n        /* \"FixedPointMathLib.sol\":10517:10571  q = ((q * x) >> 96) + 50020603652535783019961831881945 */\n      swap1\n      pop\n        /* \"FixedPointMathLib.sol\":10607:10640  533845033583426703283633433725380 */\n      0x1a521255e34f6a5061b25ef1c9c4\n        /* \"FixedPointMathLib.sol\":10601:10603  96 */\n      0x60\n        /* \"FixedPointMathLib.sol\":10595:10596  x */\n      dup8\n        /* \"FixedPointMathLib.sol\":10591:10592  q */\n      dup4\n        /* \"FixedPointMathLib.sol\":10591:10596  q * x */\n      mul\n        /* \"FixedPointMathLib.sol\":10590:10603  (q * x) >> 96 */\n      swap1\n      sar\n        /* \"FixedPointMathLib.sol\":10589:10640  ((q * x) >> 96) - 533845033583426703283633433725380 */\n      sub\n        /* \"FixedPointMathLib.sol\":10585:10640  q = ((q * x) >> 96) - 533845033583426703283633433725380 */\n      swap1\n      pop\n        /* \"FixedPointMathLib.sol\":10676:10710  3604857256930695427073651918091429 */\n      0xb1bbb201f443cf962f1a1d3db4a5\n        /* \"FixedPointMathLib.sol\":10670:10672  96 */\n      0x60\n        /* \"FixedPointMathLib.sol\":10664:10665  x */\n      dup8\n        /* \"FixedPointMathLib.sol\":10660:10661  q */\n      dup4\n        /* \"FixedPointMathLib.sol\":10660:10665  q * x */\n      mul\n        /* \"FixedPointMathLib.sol\":10659:10672  (q * x) >> 96 */\n      swap1\n      sar\n        /* \"FixedPointMathLib.sol\":10658:10710  ((q * x) >> 96) + 3604857256930695427073651918091429 */\n      add\n        /* \"FixedPointMathLib.sol\":10654:10710  q = ((q * x) >> 96) + 3604857256930695427073651918091429 */\n      swap1\n      pop\n        /* \"FixedPointMathLib.sol\":10746:10781  14423608567350463180887372962807573 */\n      0x02c72388d9f74f51a9331fed693f15\n        /* \"FixedPointMathLib.sol\":10740:10742  96 */\n      0x60\n        /* \"FixedPointMathLib.sol\":10734:10735  x */\n      dup8\n        /* \"FixedPointMathLib.sol\":10730:10731  q */\n      dup4\n        /* \"FixedPointMathLib.sol\":10730:10735  q * x */\n      mul\n        /* \"FixedPointMathLib.sol\":10729:10742  (q * x) >> 96 */\n      swap1\n      sar\n        /* \"FixedPointMathLib.sol\":10728:10781  ((q * x) >> 96) - 14423608567350463180887372962807573 */\n      sub\n        /* \"FixedPointMathLib.sol\":10724:10781  q = ((q * x) >> 96) - 14423608567350463180887372962807573 */\n      swap1\n      pop\n        /* \"FixedPointMathLib.sol\":10817:10852  26449188498355588339934803723976023 */\n      0x05180bb14799ab47a8a8cb2a527d57\n        /* \"FixedPointMathLib.sol\":10811:10813  96 */\n      0x60\n        /* \"FixedPointMathLib.sol\":10805:10806  x */\n      dup8\n        /* \"FixedPointMathLib.sol\":10801:10802  q */\n      dup4\n        /* \"FixedPointMathLib.sol\":10801:10806  q * x */\n      mul\n        /* \"FixedPointMathLib.sol\":10800:10813  (q * x) >> 96 */\n      swap1\n      sar\n        /* \"FixedPointMathLib.sol\":10799:10852  ((q * x) >> 96) + 26449188498355588339934803723976023 */\n      add\n        /* \"FixedPointMathLib.sol\":10795:10852  q = ((q * x) >> 96) + 26449188498355588339934803723976023 */\n      swap1\n      pop\n        /* \"FixedPointMathLib.sol\":11227:11228  q */\n      dup1\n        /* \"FixedPointMathLib.sol\":11224:11225  p */\n      dup3\n        /* \"FixedPointMathLib.sol\":11219:11229  sdiv(p, q) */\n      sdiv\n        /* \"FixedPointMathLib.sol\":11214:11229  r := sdiv(p, q) */\n      swap5\n      pop\n        /* \"FixedPointMathLib.sol\":11815:11816  k */\n      dup4\n        /* \"FixedPointMathLib.sol\":11809:11812  195 */\n      0xc3\n        /* \"FixedPointMathLib.sol\":11809:11816  195 - k */\n      sub\n        /* \"FixedPointMathLib.sol\":11747:11796  3822833074963236453042738258902158003155416615667 */\n      0x029d9dc38563c32e5c2f6dc192ee70ef65f9978af3\n        /* \"FixedPointMathLib.sol\":11742:11743  r */\n      dup7\n        /* \"FixedPointMathLib.sol\":11734:11796  uint256(r) * 3822833074963236453042738258902158003155416615667 */\n      mul\n        /* \"FixedPointMathLib.sol\":11733:11817  (uint256(r) * 3822833074963236453042738258902158003155416615667) >> uint256(195 - k) */\n      swap1\n      shr\n        /* \"FixedPointMathLib.sol\":11705:11831  r = int256(... */\n      swap5\n      pop\n        /* \"FixedPointMathLib.sol\":8475:11842  unchecked {... */\n      pop\n      pop\n      pop\n      pop\n        /* \"FixedPointMathLib.sol\":8406:11848  function expWad(int256 x) internal pure returns (int256 r) {... */\n    tag_51:\n      swap2\n      swap1\n      pop\n      jump\t// out\n        /* \"FixedPointMathLib.sol\":20943:24230  function fullMulDiv(uint256 x, uint256 y, uint256 d) internal pure returns (uint256 z) {... */\n    tag_29:\n        /* \"FixedPointMathLib.sol\":21019:21028  uint256 z */\n      0x00\n        /* \"FixedPointMathLib.sol\":21496:21497  y */\n      dup3\n        /* \"FixedPointMathLib.sol\":21493:21494  x */\n      dup5\n        /* \"FixedPointMathLib.sol\":21489:21498  mul(x, y) */\n      mul\n        /* \"FixedPointMathLib.sol\":21484:21498  z := mul(x, y) */\n      swap1\n      pop\n        /* \"FixedPointMathLib.sol\":21548:21549  1 */\n      0x01\n        /* \"FixedPointMathLib.sol\":21541:24214  for {} 1 {} {... */\n      iszero\n      tag_62\n      jumpi\n        /* \"FixedPointMathLib.sol\":21651:21652  d */\n      dup2\n        /* \"FixedPointMathLib.sol\":21646:21647  y */\n      dup4\n        /* \"FixedPointMathLib.sol\":21642:21643  x */\n      dup6\n        /* \"FixedPointMathLib.sol\":21639:21640  z */\n      dup4\n        /* \"FixedPointMathLib.sol\":21635:21644  div(z, x) */\n      div\n        /* \"FixedPointMathLib.sol\":21632:21648  eq(div(z, x), y) */\n      eq\n        /* \"FixedPointMathLib.sol\":21628:21629  x */\n      dup6\n        /* \"FixedPointMathLib.sol\":21621:21630  iszero(x) */\n      iszero\n        /* \"FixedPointMathLib.sol\":21618:21649  or(iszero(x), eq(div(z, x), y)) */\n      or\n        /* \"FixedPointMathLib.sol\":21614:21653  mul(or(iszero(x), eq(div(z, x), y)), d) */\n      mul\n        /* \"FixedPointMathLib.sol\":21604:24147  if iszero(mul(or(iszero(x), eq(div(z, x), y)), d)) {... */\n      tag_63\n      jumpi\n        /* \"FixedPointMathLib.sol\":21704:21705  0 */\n      0x00\n        /* \"FixedPointMathLib.sol\":21700:21706  not(0) */\n      not\n        /* \"FixedPointMathLib.sol\":21697:21698  y */\n      dup4\n        /* \"FixedPointMathLib.sol\":21694:21695  x */\n      dup6\n        /* \"FixedPointMathLib.sol\":21687:21707  mulmod(x, y, not(0)) */\n      mulmod\n        /* \"FixedPointMathLib.sol\":21760:21761  z */\n      dup2\n        /* \"FixedPointMathLib.sol\":21756:21758  mm */\n      dup2\n        /* \"FixedPointMathLib.sol\":21753:21762  lt(mm, z) */\n      lt\n        /* \"FixedPointMathLib.sol\":21750:21751  z */\n      dup3\n        /* \"FixedPointMathLib.sol\":21746:21763  add(z, lt(mm, z)) */\n      add\n        /* \"FixedPointMathLib.sol\":21742:21744  mm */\n      dup2\n        /* \"FixedPointMathLib.sol\":21738:21764  sub(mm, add(z, lt(mm, z))) */\n      sub\n        /* \"FixedPointMathLib.sol\":22012:22013  d */\n      dup4\n        /* \"FixedPointMathLib.sol\":22009:22010  y */\n      dup6\n        /* \"FixedPointMathLib.sol\":22006:22007  x */\n      dup8\n        /* \"FixedPointMathLib.sol\":21999:22014  mulmod(x, y, d) */\n      mulmod\n        /* \"FixedPointMathLib.sol\":22093:22094  d */\n      dup5\n        /* \"FixedPointMathLib.sol\":22090:22091  0 */\n      0x00\n        /* \"FixedPointMathLib.sol\":22086:22095  sub(0, d) */\n      sub\n        /* \"FixedPointMathLib.sol\":22083:22084  d */\n      dup6\n        /* \"FixedPointMathLib.sol\":22079:22096  and(d, sub(0, d)) */\n      and\n        /* \"FixedPointMathLib.sol\":22355:22357  p1 */\n      dup3\n        /* \"FixedPointMathLib.sol\":22352:22353  d */\n      dup7\n        /* \"FixedPointMathLib.sol\":22349:22358  gt(d, p1) */\n      gt\n        /* \"FixedPointMathLib.sol\":22339:22500  if iszero(gt(d, p1)) {... */\n      tag_64\n      jumpi\n        /* \"FixedPointMathLib.sol\":22399:22409  0xae47f702 */\n      0xae47f702\n        /* \"FixedPointMathLib.sol\":22393:22397  0x00 */\n      0x00\n        /* \"FixedPointMathLib.sol\":22386:22410  mstore(0x00, 0xae47f702) */\n      mstore\n        /* \"FixedPointMathLib.sol\":22473:22477  0x04 */\n      0x04\n        /* \"FixedPointMathLib.sol\":22467:22471  0x1c */\n      0x1c\n        /* \"FixedPointMathLib.sol\":22460:22478  revert(0x1c, 0x04) */\n      revert\n        /* \"FixedPointMathLib.sol\":22339:22500  if iszero(gt(d, p1)) {... */\n    tag_64:\n        /* \"FixedPointMathLib.sol\":22533:22534  t */\n      dup1\n        /* \"FixedPointMathLib.sol\":22530:22531  d */\n      dup7\n        /* \"FixedPointMathLib.sol\":22526:22535  div(d, t) */\n      div\n        /* \"FixedPointMathLib.sol\":22521:22535  d := div(d, t) */\n      swap6\n      pop\n        /* \"FixedPointMathLib.sol\":22982:22983  d */\n      dup6\n        /* \"FixedPointMathLib.sol\":22979:22980  3 */\n      0x03\n        /* \"FixedPointMathLib.sol\":22975:22984  mul(3, d) */\n      mul\n        /* \"FixedPointMathLib.sol\":22972:22973  2 */\n      0x02\n        /* \"FixedPointMathLib.sol\":22968:22985  xor(2, mul(3, d)) */\n      xor\n        /* \"FixedPointMathLib.sol\":23277:23280  inv */\n      dup1\n        /* \"FixedPointMathLib.sol\":23274:23275  d */\n      dup8\n        /* \"FixedPointMathLib.sol\":23270:23281  mul(d, inv) */\n      mul\n        /* \"FixedPointMathLib.sol\":23267:23268  2 */\n      0x02\n        /* \"FixedPointMathLib.sol\":23263:23282  sub(2, mul(d, inv)) */\n      sub\n        /* \"FixedPointMathLib.sol\":23258:23261  inv */\n      dup2\n        /* \"FixedPointMathLib.sol\":23254:23283  mul(inv, sub(2, mul(d, inv))) */\n      mul\n        /* \"FixedPointMathLib.sol\":23247:23283  inv := mul(inv, sub(2, mul(d, inv))) */\n      swap1\n      pop\n        /* \"FixedPointMathLib.sol\":23354:23357  inv */\n      dup1\n        /* \"FixedPointMathLib.sol\":23351:23352  d */\n      dup8\n        /* \"FixedPointMathLib.sol\":23347:23358  mul(d, inv) */\n      mul\n        /* \"FixedPointMathLib.sol\":23344:23345  2 */\n      0x02\n        /* \"FixedPointMathLib.sol\":23340:23359  sub(2, mul(d, inv)) */\n      sub\n        /* \"FixedPointMathLib.sol\":23335:23338  inv */\n      dup2\n        /* \"FixedPointMathLib.sol\":23331:23360  mul(inv, sub(2, mul(d, inv))) */\n      mul\n        /* \"FixedPointMathLib.sol\":23324:23360  inv := mul(inv, sub(2, mul(d, inv))) */\n      swap1\n      pop\n        /* \"FixedPointMathLib.sol\":23432:23435  inv */\n      dup1\n        /* \"FixedPointMathLib.sol\":23429:23430  d */\n      dup8\n        /* \"FixedPointMathLib.sol\":23425:23436  mul(d, inv) */\n      mul\n        /* \"FixedPointMathLib.sol\":23422:23423  2 */\n      0x02\n        /* \"FixedPointMathLib.sol\":23418:23437  sub(2, mul(d, inv)) */\n      sub\n        /* \"FixedPointMathLib.sol\":23413:23416  inv */\n      dup2\n        /* \"FixedPointMathLib.sol\":23409:23438  mul(inv, sub(2, mul(d, inv))) */\n      mul\n        /* \"FixedPointMathLib.sol\":23402:23438  inv := mul(inv, sub(2, mul(d, inv))) */\n      swap1\n      pop\n        /* \"FixedPointMathLib.sol\":23510:23513  inv */\n      dup1\n        /* \"FixedPointMathLib.sol\":23507:23508  d */\n      dup8\n        /* \"FixedPointMathLib.sol\":23503:23514  mul(d, inv) */\n      mul\n        /* \"FixedPointMathLib.sol\":23500:23501  2 */\n      0x02\n        /* \"FixedPointMathLib.sol\":23496:23515  sub(2, mul(d, inv)) */\n      sub\n        /* \"FixedPointMathLib.sol\":23491:23494  inv */\n      dup2\n        /* \"FixedPointMathLib.sol\":23487:23516  mul(inv, sub(2, mul(d, inv))) */\n      mul\n        /* \"FixedPointMathLib.sol\":23480:23516  inv := mul(inv, sub(2, mul(d, inv))) */\n      swap1\n      pop\n        /* \"FixedPointMathLib.sol\":23588:23591  inv */\n      dup1\n        /* \"FixedPointMathLib.sol\":23585:23586  d */\n      dup8\n        /* \"FixedPointMathLib.sol\":23581:23592  mul(d, inv) */\n      mul\n        /* \"FixedPointMathLib.sol\":23578:23579  2 */\n      0x02\n        /* \"FixedPointMathLib.sol\":23574:23593  sub(2, mul(d, inv)) */\n      sub\n        /* \"FixedPointMathLib.sol\":23569:23572  inv */\n      dup2\n        /* \"FixedPointMathLib.sol\":23565:23594  mul(inv, sub(2, mul(d, inv))) */\n      mul\n        /* \"FixedPointMathLib.sol\":23558:23594  inv := mul(inv, sub(2, mul(d, inv))) */\n      swap1\n      pop\n        /* \"FixedPointMathLib.sol\":24051:24054  inv */\n      dup1\n        /* \"FixedPointMathLib.sol\":24044:24047  inv */\n      dup2\n        /* \"FixedPointMathLib.sol\":24041:24042  d */\n      dup9\n        /* \"FixedPointMathLib.sol\":24037:24048  mul(d, inv) */\n      mul\n        /* \"FixedPointMathLib.sol\":24034:24035  2 */\n      0x02\n        /* \"FixedPointMathLib.sol\":24030:24049  sub(2, mul(d, inv)) */\n      sub\n        /* \"FixedPointMathLib.sol\":24026:24055  mul(sub(2, mul(d, inv)), inv) */\n      mul\n        /* \"FixedPointMathLib.sol\":23993:23994  t */\n      dup3\n        /* \"FixedPointMathLib.sol\":23989:23990  r */\n      dup5\n        /* \"FixedPointMathLib.sol\":23986:23987  z */\n      dup9\n        /* \"FixedPointMathLib.sol\":23982:23991  sub(z, r) */\n      sub\n        /* \"FixedPointMathLib.sol\":23978:23995  div(sub(z, r), t) */\n      div\n        /* \"FixedPointMathLib.sol\":23973:23974  1 */\n      0x01\n        /* \"FixedPointMathLib.sol\":23969:23970  t */\n      dup5\n        /* \"FixedPointMathLib.sol\":23965:23966  t */\n      dup6\n        /* \"FixedPointMathLib.sol\":23962:23963  0 */\n      0x00\n        /* \"FixedPointMathLib.sol\":23958:23967  sub(0, t) */\n      sub\n        /* \"FixedPointMathLib.sol\":23954:23971  div(sub(0, t), t) */\n      div\n        /* \"FixedPointMathLib.sol\":23950:23975  add(div(sub(0, t), t), 1) */\n      add\n        /* \"FixedPointMathLib.sol\":23945:23946  z */\n      dup9\n        /* \"FixedPointMathLib.sol\":23942:23943  r */\n      dup7\n        /* \"FixedPointMathLib.sol\":23939:23947  gt(r, z) */\n      gt\n        /* \"FixedPointMathLib.sol\":23935:23937  p1 */\n      dup8\n        /* \"FixedPointMathLib.sol\":23931:23948  sub(p1, gt(r, z)) */\n      sub\n        /* \"FixedPointMathLib.sol\":23927:23976  mul(sub(p1, gt(r, z)), add(div(sub(0, t), t), 1)) */\n      mul\n        /* \"FixedPointMathLib.sol\":23924:23996  or(mul(sub(p1, gt(r, z)), add(div(sub(0, t), t), 1)), div(sub(z, r), t)) */\n      or\n        /* \"FixedPointMathLib.sol\":23666:24103  mul(... */\n      mul\n        /* \"FixedPointMathLib.sol\":23637:24103  z :=... */\n      swap6\n      pop\n        /* \"FixedPointMathLib.sol\":24124:24129  break */\n      pop\n      pop\n      pop\n      pop\n      pop\n      jump(tag_62)\n        /* \"FixedPointMathLib.sol\":21604:24147  if iszero(mul(or(iszero(x), eq(div(z, x), y)), d)) {... */\n    tag_63:\n        /* \"FixedPointMathLib.sol\":24176:24177  d */\n      dup2\n        /* \"FixedPointMathLib.sol\":24173:24174  z */\n      dup2\n        /* \"FixedPointMathLib.sol\":24169:24178  div(z, d) */\n      div\n        /* \"FixedPointMathLib.sol\":24164:24178  z := div(z, d) */\n      swap1\n      pop\n        /* \"FixedPointMathLib.sol\":21541:24214  for {} 1 {} {... */\n    tag_62:\n        /* \"FixedPointMathLib.sol\":20943:24230  function fullMulDiv(uint256 x, uint256 y, uint256 d) internal pure returns (uint256 z) {... */\n      swap4\n      swap3\n      pop\n      pop\n      pop\n      jump\t// out\n        /* \"FixedPointMathLib.sol\":12058:15985  function lnWad(int256 x) internal pure returns (int256 r) {... */\n    tag_34:\n        /* \"FixedPointMathLib.sol\":12106:12114  int256 r */\n      0x00\n        /* \"FixedPointMathLib.sol\":12624:12625  x */\n      dup2\n        /* \"FixedPointMathLib.sol\":12588:12622  0xffffffffffffffffffffffffffffffff */\n      0xffffffffffffffffffffffffffffffff\n        /* \"FixedPointMathLib.sol\":12585:12626  lt(0xffffffffffffffffffffffffffffffff, x) */\n      lt\n        /* \"FixedPointMathLib.sol\":12582:12583  7 */\n      0x07\n        /* \"FixedPointMathLib.sol\":12578:12627  shl(7, lt(0xffffffffffffffffffffffffffffffff, x)) */\n      shl\n        /* \"FixedPointMathLib.sol\":12573:12627  r := shl(7, lt(0xffffffffffffffffffffffffffffffff, x)) */\n      swap1\n      pop\n        /* \"FixedPointMathLib.sol\":12688:12689  x */\n      dup2\n        /* \"FixedPointMathLib.sol\":12685:12686  r */\n      dup2\n        /* \"FixedPointMathLib.sol\":12681:12690  shr(r, x) */\n      shr\n        /* \"FixedPointMathLib.sol\":12661:12679  0xffffffffffffffff */\n      0xffffffffffffffff\n        /* \"FixedPointMathLib.sol\":12658:12691  lt(0xffffffffffffffff, shr(r, x)) */\n      lt\n        /* \"FixedPointMathLib.sol\":12655:12656  6 */\n      0x06\n        /* \"FixedPointMathLib.sol\":12651:12692  shl(6, lt(0xffffffffffffffff, shr(r, x))) */\n      shl\n        /* \"FixedPointMathLib.sol\":12648:12649  r */\n      dup2\n        /* \"FixedPointMathLib.sol\":12645:12693  or(r, shl(6, lt(0xffffffffffffffff, shr(r, x)))) */\n      or\n        /* \"FixedPointMathLib.sol\":12640:12693  r := or(r, shl(6, lt(0xffffffffffffffff, shr(r, x)))) */\n      swap1\n      pop\n        /* \"FixedPointMathLib.sol\":12746:12747  x */\n      dup2\n        /* \"FixedPointMathLib.sol\":12743:12744  r */\n      dup2\n        /* \"FixedPointMathLib.sol\":12739:12748  shr(r, x) */\n      shr\n        /* \"FixedPointMathLib.sol\":12727:12737  0xffffffff */\n      0xffffffff\n        /* \"FixedPointMathLib.sol\":12724:12749  lt(0xffffffff, shr(r, x)) */\n      lt\n        /* \"FixedPointMathLib.sol\":12721:12722  5 */\n      0x05\n        /* \"FixedPointMathLib.sol\":12717:12750  shl(5, lt(0xffffffff, shr(r, x))) */\n      shl\n        /* \"FixedPointMathLib.sol\":12714:12715  r */\n      dup2\n        /* \"FixedPointMathLib.sol\":12711:12751  or(r, shl(5, lt(0xffffffff, shr(r, x)))) */\n      or\n        /* \"FixedPointMathLib.sol\":12706:12751  r := or(r, shl(5, lt(0xffffffff, shr(r, x)))) */\n      swap1\n      pop\n        /* \"FixedPointMathLib.sol\":12800:12801  x */\n      dup2\n        /* \"FixedPointMathLib.sol\":12797:12798  r */\n      dup2\n        /* \"FixedPointMathLib.sol\":12793:12802  shr(r, x) */\n      shr\n        /* \"FixedPointMathLib.sol\":12785:12791  0xffff */\n      0xffff\n        /* \"FixedPointMathLib.sol\":12782:12803  lt(0xffff, shr(r, x)) */\n      lt\n        /* \"FixedPointMathLib.sol\":12779:12780  4 */\n      0x04\n        /* \"FixedPointMathLib.sol\":12775:12804  shl(4, lt(0xffff, shr(r, x))) */\n      shl\n        /* \"FixedPointMathLib.sol\":12772:12773  r */\n      dup2\n        /* \"FixedPointMathLib.sol\":12769:12805  or(r, shl(4, lt(0xffff, shr(r, x)))) */\n      or\n        /* \"FixedPointMathLib.sol\":12764:12805  r := or(r, shl(4, lt(0xffff, shr(r, x)))) */\n      swap1\n      pop\n        /* \"FixedPointMathLib.sol\":12852:12853  x */\n      dup2\n        /* \"FixedPointMathLib.sol\":12849:12850  r */\n      dup2\n        /* \"FixedPointMathLib.sol\":12845:12854  shr(r, x) */\n      shr\n        /* \"FixedPointMathLib.sol\":12839:12843  0xff */\n      0xff\n        /* \"FixedPointMathLib.sol\":12836:12855  lt(0xff, shr(r, x)) */\n      lt\n        /* \"FixedPointMathLib.sol\":12833:12834  3 */\n      0x03\n        /* \"FixedPointMathLib.sol\":12829:12856  shl(3, lt(0xff, shr(r, x))) */\n      shl\n        /* \"FixedPointMathLib.sol\":12826:12827  r */\n      dup2\n        /* \"FixedPointMathLib.sol\":12823:12857  or(r, shl(3, lt(0xff, shr(r, x)))) */\n      or\n        /* \"FixedPointMathLib.sol\":12818:12857  r := or(r, shl(3, lt(0xff, shr(r, x)))) */\n      swap1\n      pop\n        /* \"FixedPointMathLib.sol\":12961:12962  0 */\n      0x00\n        /* \"FixedPointMathLib.sol\":12958:12959  x */\n      dup3\n        /* \"FixedPointMathLib.sol\":12954:12963  sgt(x, 0) */\n      sgt\n        /* \"FixedPointMathLib.sol\":12944:13079  if iszero(sgt(x, 0)) {... */\n      tag_66\n      jumpi\n        /* \"FixedPointMathLib.sol\":12996:13006  0x1615e638 */\n      0x1615e638\n        /* \"FixedPointMathLib.sol\":12990:12994  0x00 */\n      0x00\n        /* \"FixedPointMathLib.sol\":12983:13007  mstore(0x00, 0x1615e638) */\n      mstore\n        /* \"FixedPointMathLib.sol\":13060:13064  0x04 */\n      0x04\n        /* \"FixedPointMathLib.sol\":13054:13058  0x1c */\n      0x1c\n        /* \"FixedPointMathLib.sol\":13047:13065  revert(0x1c, 0x04) */\n      revert\n        /* \"FixedPointMathLib.sol\":12944:13079  if iszero(sgt(x, 0)) {... */\n    tag_66:\n        /* \"FixedPointMathLib.sol\":13231:13297  0xf8f9f9faf9fdfafbf9fdfcfdfafbfcfef9fafdfafcfcfbfefafafcfbffffffff */\n      0xf8f9f9faf9fdfafbf9fdfcfdfafbfcfef9fafdfafcfcfbfefafafcfbffffffff\n        /* \"FixedPointMathLib.sol\":13177:13211  0x8421084210842108cc6318c6db6d54be */\n      0x8421084210842108cc6318c6db6d54be\n        /* \"FixedPointMathLib.sol\":13173:13174  x */\n      dup4\n        /* \"FixedPointMathLib.sol\":13170:13171  r */\n      dup4\n        /* \"FixedPointMathLib.sol\":13166:13175  shr(r, x) */\n      shr\n        /* \"FixedPointMathLib.sol\":13162:13212  shr(shr(r, x), 0x8421084210842108cc6318c6db6d54be) */\n      shr\n        /* \"FixedPointMathLib.sol\":13156:13160  0x1f */\n      0x1f\n        /* \"FixedPointMathLib.sol\":13152:13213  and(0x1f, shr(shr(r, x), 0x8421084210842108cc6318c6db6d54be)) */\n      and\n        /* \"FixedPointMathLib.sol\":13147:13298  byte(and(0x1f, shr(shr(r, x), 0x8421084210842108cc6318c6db6d54be)),... */\n      byte\n        /* \"FixedPointMathLib.sol\":13144:13145  r */\n      dup2\n        /* \"FixedPointMathLib.sol\":13140:13299  xor(r, byte(and(0x1f, shr(shr(r, x), 0x8421084210842108cc6318c6db6d54be)),... */\n      xor\n        /* \"FixedPointMathLib.sol\":13135:13299  r := xor(r, byte(and(0x1f, shr(shr(r, x), 0x8421084210842108cc6318c6db6d54be)),... */\n      swap1\n      pop\n        /* \"FixedPointMathLib.sol\":13432:13433  x */\n      dup2\n        /* \"FixedPointMathLib.sol\":13429:13430  r */\n      dup2\n        /* \"FixedPointMathLib.sol\":13425:13434  shl(r, x) */\n      shl\n        /* \"FixedPointMathLib.sol\":13420:13423  159 */\n      0x9f\n        /* \"FixedPointMathLib.sol\":13416:13435  shr(159, shl(r, x)) */\n      shr\n        /* \"FixedPointMathLib.sol\":13411:13435  x := shr(159, shl(r, x)) */\n      swap2\n      pop\n        /* \"FixedPointMathLib.sol\":13961:13993  11111509109440967052023855526967 */\n      0x8c3f38e95a6b1ff2ab1c3b3437\n        /* \"FixedPointMathLib.sol\":13956:13957  x */\n      dup3\n        /* \"FixedPointMathLib.sol\":13950:13951  x */\n      dup4\n        /* \"FixedPointMathLib.sol\":13944:13945  x */\n      dup5\n        /* \"FixedPointMathLib.sol\":13940:13941  x */\n      dup6\n        /* \"FixedPointMathLib.sol\":13887:13918  3273285459638523848632254066296 */\n      0x29508e458543d8aa4df2abee78\n        /* \"FixedPointMathLib.sol\":13883:13942  add(3273285459638523848632254066296,... */\n      add\n        /* \"FixedPointMathLib.sol\":13879:13946  mul(add(3273285459638523848632254066296,... */\n      mul\n        /* \"FixedPointMathLib.sol\":13875:13877  96 */\n      0x60\n        /* \"FixedPointMathLib.sol\":13871:13947  sar(96, mul(add(3273285459638523848632254066296,... */\n      sar\n        /* \"FixedPointMathLib.sol\":13821:13853  24828157081833163892658089445524 */\n      0x0139601a2efabe717e604cbb4894\n        /* \"FixedPointMathLib.sol\":13817:13948  add(24828157081833163892658089445524,... */\n      add\n        /* \"FixedPointMathLib.sol\":13813:13952  mul(add(24828157081833163892658089445524,... */\n      mul\n        /* \"FixedPointMathLib.sol\":13809:13811  96 */\n      0x60\n        /* \"FixedPointMathLib.sol\":13805:13953  sar(96, mul(add(24828157081833163892658089445524,... */\n      sar\n        /* \"FixedPointMathLib.sol\":13755:13787  43456485725739037958740375743393 */\n      0x02247f7a7b6594320649aa03aba1\n        /* \"FixedPointMathLib.sol\":13751:13954  add(43456485725739037958740375743393,... */\n      add\n        /* \"FixedPointMathLib.sol\":13747:13958  mul(add(43456485725739037958740375743393,... */\n      mul\n        /* \"FixedPointMathLib.sol\":13743:13745  96 */\n      0x60\n        /* \"FixedPointMathLib.sol\":13739:13959  sar(96, mul(add(43456485725739037958740375743393,... */\n      sar\n        /* \"FixedPointMathLib.sol\":13645:13994  sub( // This heavily nested expression is to avoid stack-too-deep for via-ir.... */\n      sub\n        /* \"FixedPointMathLib.sol\":14036:14068  45023709667254063763336534515857 */\n      0x02384773bdf1ac5676facced6091\n        /* \"FixedPointMathLib.sol\":14031:14032  x */\n      dup4\n        /* \"FixedPointMathLib.sol\":14028:14029  p */\n      dup3\n        /* \"FixedPointMathLib.sol\":14024:14033  mul(p, x) */\n      mul\n        /* \"FixedPointMathLib.sol\":14020:14022  96 */\n      0x60\n        /* \"FixedPointMathLib.sol\":14016:14034  sar(96, mul(p, x)) */\n      sar\n        /* \"FixedPointMathLib.sol\":14012:14069  sub(sar(96, mul(p, x)), 45023709667254063763336534515857) */\n      sub\n        /* \"FixedPointMathLib.sol\":14007:14069  p := sub(sar(96, mul(p, x)), 45023709667254063763336534515857) */\n      swap1\n      pop\n        /* \"FixedPointMathLib.sol\":14111:14143  14706773417378608786704636184526 */\n      0xb9a025d814b29c212b8b1a07ce\n        /* \"FixedPointMathLib.sol\":14106:14107  x */\n      dup4\n        /* \"FixedPointMathLib.sol\":14103:14104  p */\n      dup3\n        /* \"FixedPointMathLib.sol\":14099:14108  mul(p, x) */\n      mul\n        /* \"FixedPointMathLib.sol\":14095:14097  96 */\n      0x60\n        /* \"FixedPointMathLib.sol\":14091:14109  sar(96, mul(p, x)) */\n      sar\n        /* \"FixedPointMathLib.sol\":14087:14144  sub(sar(96, mul(p, x)), 14706773417378608786704636184526) */\n      sub\n        /* \"FixedPointMathLib.sol\":14082:14144  p := sub(sar(96, mul(p, x)), 14706773417378608786704636184526) */\n      swap1\n      pop\n        /* \"FixedPointMathLib.sol\":14185:14215  795164235651350426258249787498 */\n      0x0a09507084cc699bb0e71ea86a\n        /* \"FixedPointMathLib.sol\":14181:14183  96 */\n      0x60\n        /* \"FixedPointMathLib.sol\":14177:14216  shl(96, 795164235651350426258249787498) */\n      shl\n        /* \"FixedPointMathLib.sol\":14173:14174  x */\n      dup4\n        /* \"FixedPointMathLib.sol\":14170:14171  p */\n      dup3\n        /* \"FixedPointMathLib.sol\":14166:14175  mul(p, x) */\n      mul\n        /* \"FixedPointMathLib.sol\":14162:14217  sub(mul(p, x), shl(96, 795164235651350426258249787498)) */\n      sub\n        /* \"FixedPointMathLib.sol\":14157:14217  p := sub(mul(p, x), shl(96, 795164235651350426258249787498)) */\n      swap1\n      pop\n        /* \"FixedPointMathLib.sol\":14421:14422  x */\n      dup3\n        /* \"FixedPointMathLib.sol\":14388:14419  5573035233440673466300451813936 */\n      0x465772b2bbbb5f824b15207a30\n        /* \"FixedPointMathLib.sol\":14384:14423  add(5573035233440673466300451813936, x) */\n      add\n        /* \"FixedPointMathLib.sol\":14494:14495  q */\n      dup1\n        /* \"FixedPointMathLib.sol\":14491:14492  x */\n      dup5\n        /* \"FixedPointMathLib.sol\":14487:14496  mul(x, q) */\n      mul\n        /* \"FixedPointMathLib.sol\":14483:14485  96 */\n      0x60\n        /* \"FixedPointMathLib.sol\":14479:14497  sar(96, mul(x, q)) */\n      sar\n        /* \"FixedPointMathLib.sol\":14445:14477  71694874799317883764090561454958 */\n      0x0388eaa27412d5aca026815d636e\n        /* \"FixedPointMathLib.sol\":14441:14498  add(71694874799317883764090561454958, sar(96, mul(x, q))) */\n      add\n        /* \"FixedPointMathLib.sol\":14436:14498  q := add(71694874799317883764090561454958, sar(96, mul(x, q))) */\n      swap1\n      pop\n        /* \"FixedPointMathLib.sol\":14570:14571  q */\n      dup1\n        /* \"FixedPointMathLib.sol\":14567:14568  x */\n      dup5\n        /* \"FixedPointMathLib.sol\":14563:14572  mul(x, q) */\n      mul\n        /* \"FixedPointMathLib.sol\":14559:14561  96 */\n      0x60\n        /* \"FixedPointMathLib.sol\":14555:14573  sar(96, mul(x, q)) */\n      sar\n        /* \"FixedPointMathLib.sol\":14520:14553  283447036172924575727196451306956 */\n      0x0df99ac502031bf953eff472fdcc\n        /* \"FixedPointMathLib.sol\":14516:14574  add(283447036172924575727196451306956, sar(96, mul(x, q))) */\n      add\n        /* \"FixedPointMathLib.sol\":14511:14574  q := add(283447036172924575727196451306956, sar(96, mul(x, q))) */\n      swap1\n      pop\n        /* \"FixedPointMathLib.sol\":14646:14647  q */\n      dup1\n        /* \"FixedPointMathLib.sol\":14643:14644  x */\n      dup5\n        /* \"FixedPointMathLib.sol\":14639:14648  mul(x, q) */\n      mul\n        /* \"FixedPointMathLib.sol\":14635:14637  96 */\n      0x60\n        /* \"FixedPointMathLib.sol\":14631:14649  sar(96, mul(x, q)) */\n      sar\n        /* \"FixedPointMathLib.sol\":14596:14629  401686690394027663651624208769553 */\n      0x13cdffb29d51d99322bdff5f2211\n        /* \"FixedPointMathLib.sol\":14592:14650  add(401686690394027663651624208769553, sar(96, mul(x, q))) */\n      add\n        /* \"FixedPointMathLib.sol\":14587:14650  q := add(401686690394027663651624208769553, sar(96, mul(x, q))) */\n      swap1\n      pop\n        /* \"FixedPointMathLib.sol\":14722:14723  q */\n      dup1\n        /* \"FixedPointMathLib.sol\":14719:14720  x */\n      dup5\n        /* \"FixedPointMathLib.sol\":14715:14724  mul(x, q) */\n      mul\n        /* \"FixedPointMathLib.sol\":14711:14713  96 */\n      0x60\n        /* \"FixedPointMathLib.sol\":14707:14725  sar(96, mul(x, q)) */\n      sar\n        /* \"FixedPointMathLib.sol\":14672:14705  204048457590392012362485061816622 */\n      0x0a0f742023def783a307a986912e\n        /* \"FixedPointMathLib.sol\":14668:14726  add(204048457590392012362485061816622, sar(96, mul(x, q))) */\n      add\n        /* \"FixedPointMathLib.sol\":14663:14726  q := add(204048457590392012362485061816622, sar(96, mul(x, q))) */\n      swap1\n      pop\n        /* \"FixedPointMathLib.sol\":14797:14798  q */\n      dup1\n        /* \"FixedPointMathLib.sol\":14794:14795  x */\n      dup5\n        /* \"FixedPointMathLib.sol\":14790:14799  mul(x, q) */\n      mul\n        /* \"FixedPointMathLib.sol\":14786:14788  96 */\n      0x60\n        /* \"FixedPointMathLib.sol\":14782:14800  sar(96, mul(x, q)) */\n      sar\n        /* \"FixedPointMathLib.sol\":14748:14780  31853899698501571402653359427138 */\n      0x01920d8043ca89b5239253284e42\n        /* \"FixedPointMathLib.sol\":14744:14801  add(31853899698501571402653359427138, sar(96, mul(x, q))) */\n      add\n        /* \"FixedPointMathLib.sol\":14739:14801  q := add(31853899698501571402653359427138, sar(96, mul(x, q))) */\n      swap1\n      pop\n        /* \"FixedPointMathLib.sol\":14870:14871  q */\n      dup1\n        /* \"FixedPointMathLib.sol\":14867:14868  x */\n      dup5\n        /* \"FixedPointMathLib.sol\":14863:14872  mul(x, q) */\n      mul\n        /* \"FixedPointMathLib.sol\":14859:14861  96 */\n      0x60\n        /* \"FixedPointMathLib.sol\":14855:14873  sar(96, mul(x, q)) */\n      sar\n        /* \"FixedPointMathLib.sol\":14823:14853  909429971244387300277376558375 */\n      0x0b7a86d7375468fac667a0a527\n        /* \"FixedPointMathLib.sol\":14819:14874  add(909429971244387300277376558375, sar(96, mul(x, q))) */\n      add\n        /* \"FixedPointMathLib.sol\":14814:14874  q := add(909429971244387300277376558375, sar(96, mul(x, q))) */\n      swap1\n      pop\n        /* \"FixedPointMathLib.sol\":15354:15355  q */\n      dup1\n        /* \"FixedPointMathLib.sol\":15351:15352  p */\n      dup3\n        /* \"FixedPointMathLib.sol\":15346:15356  sdiv(p, q) */\n      sdiv\n        /* \"FixedPointMathLib.sol\":15341:15356  p := sdiv(p, q) */\n      swap2\n      pop\n        /* \"FixedPointMathLib.sol\":15521:15522  p */\n      dup2\n        /* \"FixedPointMathLib.sol\":15476:15519  1677202110996718588342820967067443963516166 */\n      0x1340daa0d5f769dba1915cef59f0815a5506\n        /* \"FixedPointMathLib.sol\":15472:15523  mul(1677202110996718588342820967067443963516166, p) */\n      mul\n        /* \"FixedPointMathLib.sol\":15467:15523  p := mul(1677202110996718588342820967067443963516166, p) */\n      swap2\n      pop\n        /* \"FixedPointMathLib.sol\":15728:15729  p */\n      dup2\n        /* \"FixedPointMathLib.sol\":15723:15724  r */\n      dup4\n        /* \"FixedPointMathLib.sol\":15718:15721  159 */\n      0x9f\n        /* \"FixedPointMathLib.sol\":15714:15725  sub(159, r) */\n      sub\n        /* \"FixedPointMathLib.sol\":15641:15712  16597577552685614221487285958193947469193820559219878177908093499208371 */\n      0x0267a36c0c95b3975ab3ee5b203a7614a3f75373f047d803ae7b6687f2b3\n        /* \"FixedPointMathLib.sol\":15637:15726  mul(16597577552685614221487285958193947469193820559219878177908093499208371, sub(159, r)) */\n      mul\n        /* \"FixedPointMathLib.sol\":15633:15730  add(mul(16597577552685614221487285958193947469193820559219878177908093499208371, sub(159, r)), p) */\n      add\n        /* \"FixedPointMathLib.sol\":15628:15730  p := add(mul(16597577552685614221487285958193947469193820559219878177908093499208371, sub(159, r)), p) */\n      swap2\n      pop\n        /* \"FixedPointMathLib.sol\":15884:15885  p */\n      dup2\n        /* \"FixedPointMathLib.sol\":15810:15882  600920179829731861736702779321621459595472258049074101567377883020018308 */\n      0x57115e47018c7177eebf7cd370a3356a1b7863008a5ae8028c72b8864284\n        /* \"FixedPointMathLib.sol\":15806:15886  add(600920179829731861736702779321621459595472258049074101567377883020018308, p) */\n      add\n        /* \"FixedPointMathLib.sol\":15801:15886  p := add(600920179829731861736702779321621459595472258049074101567377883020018308, p) */\n      swap2\n      pop\n        /* \"FixedPointMathLib.sol\":15967:15968  p */\n      dup2\n        /* \"FixedPointMathLib.sol\":15962:15965  174 */\n      0xae\n        /* \"FixedPointMathLib.sol\":15958:15969  sar(174, p) */\n      sar\n        /* \"FixedPointMathLib.sol\":15953:15969  r := sar(174, p) */\n      swap3\n      pop\n        /* \"FixedPointMathLib.sol\":12178:15979  {... */\n      pop\n      pop\n        /* \"FixedPointMathLib.sol\":12058:15985  function lnWad(int256 x) internal pure returns (int256 r) {... */\n      swap2\n      swap1\n      pop\n      jump\t// out\n        /* \"FixedPointMathLib.sol\":5389:5833  function divWad(uint256 x, uint256 y) internal pure returns (uint256 z) {... */\n    tag_35:\n        /* \"FixedPointMathLib.sol\":5450:5459  uint256 z */\n      0x00\n        /* \"FixedPointMathLib.sol\":5659:5662  WAD */\n      0x0de0b6b3a7640000\n        /* \"FixedPointMathLib.sol\":5655:5656  0 */\n      0x00\n        /* \"FixedPointMathLib.sol\":5651:5657  not(0) */\n      not\n        /* \"FixedPointMathLib.sol\":5647:5663  div(not(0), WAD) */\n      div\n        /* \"FixedPointMathLib.sol\":5644:5645  1 */\n      0x01\n        /* \"FixedPointMathLib.sol\":5640:5664  add(1, div(not(0), WAD)) */\n      add\n        /* \"FixedPointMathLib.sol\":5637:5638  x */\n      dup4\n        /* \"FixedPointMathLib.sol\":5634:5665  lt(x, add(1, div(not(0), WAD))) */\n      lt\n        /* \"FixedPointMathLib.sol\":5631:5632  y */\n      dup3\n        /* \"FixedPointMathLib.sol\":5627:5666  mul(y, lt(x, add(1, div(not(0), WAD)))) */\n      mul\n        /* \"FixedPointMathLib.sol\":5617:5780  if iszero(mul(y, lt(x, add(1, div(not(0), WAD))))) {... */\n      tag_68\n      jumpi\n        /* \"FixedPointMathLib.sol\":5699:5709  0x7c5f487d */\n      0x7c5f487d\n        /* \"FixedPointMathLib.sol\":5693:5697  0x00 */\n      0x00\n        /* \"FixedPointMathLib.sol\":5686:5710  mstore(0x00, 0x7c5f487d) */\n      mstore\n        /* \"FixedPointMathLib.sol\":5761:5765  0x04 */\n      0x04\n        /* \"FixedPointMathLib.sol\":5755:5759  0x1c */\n      0x1c\n        /* \"FixedPointMathLib.sol\":5748:5766  revert(0x1c, 0x04) */\n      revert\n        /* \"FixedPointMathLib.sol\":5617:5780  if iszero(mul(y, lt(x, add(1, div(not(0), WAD))))) {... */\n    tag_68:\n        /* \"FixedPointMathLib.sol\":5815:5816  y */\n      dup2\n        /* \"FixedPointMathLib.sol\":5809:5812  WAD */\n      0x0de0b6b3a7640000\n        /* \"FixedPointMathLib.sol\":5806:5807  x */\n      dup5\n        /* \"FixedPointMathLib.sol\":5802:5813  mul(x, WAD) */\n      mul\n        /* \"FixedPointMathLib.sol\":5798:5817  div(mul(x, WAD), y) */\n      div\n        /* \"FixedPointMathLib.sol\":5793:5817  z := div(mul(x, WAD), y) */\n      swap1\n      pop\n        /* \"FixedPointMathLib.sol\":5389:5833  function divWad(uint256 x, uint256 y) internal pure returns (uint256 z) {... */\n      swap3\n      swap2\n      pop\n      pop\n      jump\t// out\n        /* \"#utility.yul\":7:84   */\n    tag_69:\n        /* \"#utility.yul\":44:51   */\n      0x00\n        /* \"#utility.yul\":73:78   */\n      dup2\n        /* \"#utility.yul\":62:78   */\n      swap1\n      pop\n        /* \"#utility.yul\":7:84   */\n      swap2\n      swap1\n      pop\n      jump\t// out\n        /* \"#utility.yul\":90:208   */\n    tag_70:\n        /* \"#utility.yul\":177:201   */\n      tag_81\n        /* \"#utility.yul\":195:200   */\n      dup2\n        /* \"#utility.yul\":177:201   */\n      tag_69\n      jump\t// in\n    tag_81:\n        /* \"#utility.yul\":172:175   */\n      dup3\n        /* \"#utility.yul\":165:202   */\n      mstore\n        /* \"#utility.yul\":90:208   */\n      pop\n      pop\n      jump\t// out\n        /* \"#utility.yul\":214:436   */\n    tag_10:\n        /* \"#utility.yul\":307:311   */\n      0x00\n        /* \"#utility.yul\":345:347   */\n      0x20\n        /* \"#utility.yul\":334:343   */\n      dup3\n        /* \"#utility.yul\":330:348   */\n      add\n        /* \"#utility.yul\":322:348   */\n      swap1\n      pop\n        /* \"#utility.yul\":358:429   */\n      tag_83\n        /* \"#utility.yul\":426:427   */\n      0x00\n        /* \"#utility.yul\":415:424   */\n      dup4\n        /* \"#utility.yul\":411:428   */\n      add\n        /* \"#utility.yul\":402:408   */\n      dup5\n        /* \"#utility.yul\":358:429   */\n      tag_70\n      jump\t// in\n    tag_83:\n        /* \"#utility.yul\":214:436   */\n      swap3\n      swap2\n      pop\n      pop\n      jump\t// out\n        /* \"#utility.yul\":523:640   */\n    tag_72:\n        /* \"#utility.yul\":632:633   */\n      0x00\n        /* \"#utility.yul\":629:630   */\n      0x00\n        /* \"#utility.yul\":622:634   */\n      revert\n        /* \"#utility.yul\":769:891   */\n    tag_74:\n        /* \"#utility.yul\":842:866   */\n      tag_88\n        /* \"#utility.yul\":860:865   */\n      dup2\n        /* \"#utility.yul\":842:866   */\n      tag_69\n      jump\t// in\n    tag_88:\n        /* \"#utility.yul\":835:840   */\n      dup2\n        /* \"#utility.yul\":832:867   */\n      eq\n        /* \"#utility.yul\":822:885   */\n      tag_89\n      jumpi\n        /* \"#utility.yul\":881:882   */\n      0x00\n        /* \"#utility.yul\":878:879   */\n      0x00\n        /* \"#utility.yul\":871:883   */\n      revert\n        /* \"#utility.yul\":822:885   */\n    tag_89:\n        /* \"#utility.yul\":769:891   */\n      pop\n      jump\t// out\n        /* \"#utility.yul\":897:1036   */\n    tag_75:\n        /* \"#utility.yul\":943:948   */\n      0x00\n        /* \"#utility.yul\":981:987   */\n      dup2\n        /* \"#utility.yul\":968:988   */\n      calldataload\n        /* \"#utility.yul\":959:988   */\n      swap1\n      pop\n        /* \"#utility.yul\":997:1030   */\n      tag_91\n        /* \"#utility.yul\":1024:1029   */\n      dup2\n        /* \"#utility.yul\":997:1030   */\n      tag_74\n      jump\t// in\n    tag_91:\n        /* \"#utility.yul\":897:1036   */\n      swap3\n      swap2\n      pop\n      pop\n      jump\t// out\n        /* \"#utility.yul\":1042:1516   */\n    tag_13:\n        /* \"#utility.yul\":1110:1116   */\n      0x00\n        /* \"#utility.yul\":1118:1124   */\n      0x00\n        /* \"#utility.yul\":1167:1169   */\n      0x40\n        /* \"#utility.yul\":1155:1164   */\n      dup4\n        /* \"#utility.yul\":1146:1153   */\n      dup6\n        /* \"#utility.yul\":1142:1165   */\n      sub\n        /* \"#utility.yul\":1138:1170   */\n      slt\n        /* \"#utility.yul\":1135:1254   */\n      iszero\n      tag_93\n      jumpi\n        /* \"#utility.yul\":1173:1252   */\n      tag_94\n      tag_72\n      jump\t// in\n    tag_94:\n        /* \"#utility.yul\":1135:1254   */\n    tag_93:\n        /* \"#utility.yul\":1293:1294   */\n      0x00\n        /* \"#utility.yul\":1318:1371   */\n      tag_95\n        /* \"#utility.yul\":1363:1370   */\n      dup6\n        /* \"#utility.yul\":1354:1360   */\n      dup3\n        /* \"#utility.yul\":1343:1352   */\n      dup7\n        /* \"#utility.yul\":1339:1361   */\n      add\n        /* \"#utility.yul\":1318:1371   */\n      tag_75\n      jump\t// in\n    tag_95:\n        /* \"#utility.yul\":1308:1371   */\n      swap3\n      pop\n        /* \"#utility.yul\":1264:1381   */\n      pop\n        /* \"#utility.yul\":1420:1422   */\n      0x20\n        /* \"#utility.yul\":1446:1499   */\n      tag_96\n        /* \"#utility.yul\":1491:1498   */\n      dup6\n        /* \"#utility.yul\":1482:1488   */\n      dup3\n        /* \"#utility.yul\":1471:1480   */\n      dup7\n        /* \"#utility.yul\":1467:1489   */\n      add\n        /* \"#utility.yul\":1446:1499   */\n      tag_75\n      jump\t// in\n    tag_96:\n        /* \"#utility.yul\":1436:1499   */\n      swap2\n      pop\n        /* \"#utility.yul\":1391:1509   */\n      pop\n        /* \"#utility.yul\":1042:1516   */\n      swap3\n      pop\n      swap3\n      swap1\n      pop\n      jump\t// out\n        /* \"#utility.yul\":1522:1702   */\n    tag_76:\n        /* \"#utility.yul\":1570:1647   */\n      0x4e487b7100000000000000000000000000000000000000000000000000000000\n        /* \"#utility.yul\":1567:1568   */\n      0x00\n        /* \"#utility.yul\":1560:1648   */\n      mstore\n        /* \"#utility.yul\":1667:1671   */\n      0x11\n        /* \"#utility.yul\":1664:1665   */\n      0x04\n        /* \"#utility.yul\":1657:1672   */\n      mstore\n        /* \"#utility.yul\":1691:1695   */\n      0x24\n        /* \"#utility.yul\":1688:1689   */\n      0x00\n        /* \"#utility.yul\":1681:1696   */\n      revert\n        /* \"#utility.yul\":1708:1899   */\n    tag_31:\n        /* \"#utility.yul\":1748:1751   */\n      0x00\n        /* \"#utility.yul\":1767:1787   */\n      tag_99\n        /* \"#utility.yul\":1785:1786   */\n      dup3\n        /* \"#utility.yul\":1767:1787   */\n      tag_69\n      jump\t// in\n    tag_99:\n        /* \"#utility.yul\":1762:1787   */\n      swap2\n      pop\n        /* \"#utility.yul\":1801:1821   */\n      tag_100\n        /* \"#utility.yul\":1819:1820   */\n      dup4\n        /* \"#utility.yul\":1801:1821   */\n      tag_69\n      jump\t// in\n    tag_100:\n        /* \"#utility.yul\":1796:1821   */\n      swap3\n      pop\n        /* \"#utility.yul\":1844:1845   */\n      dup3\n        /* \"#utility.yul\":1841:1842   */\n      dup3\n        /* \"#utility.yul\":1837:1846   */\n      add\n        /* \"#utility.yul\":1830:1846   */\n      swap1\n      pop\n        /* \"#utility.yul\":1865:1868   */\n      dup1\n        /* \"#utility.yul\":1862:1863   */\n      dup3\n        /* \"#utility.yul\":1859:1869   */\n      gt\n        /* \"#utility.yul\":1856:1892   */\n      iszero\n      tag_101\n      jumpi\n        /* \"#utility.yul\":1872:1890   */\n      tag_102\n      tag_76\n      jump\t// in\n    tag_102:\n        /* \"#utility.yul\":1856:1892   */\n    tag_101:\n        /* \"#utility.yul\":1708:1899   */\n      swap3\n      swap2\n      pop\n      pop\n      jump\t// out\n        /* \"#utility.yul\":1905:2099   */\n    tag_37:\n        /* \"#utility.yul\":1945:1949   */\n      0x00\n        /* \"#utility.yul\":1965:1985   */\n      tag_104\n        /* \"#utility.yul\":1983:1984   */\n      dup3\n        /* \"#utility.yul\":1965:1985   */\n      tag_69\n      jump\t// in\n    tag_104:\n        /* \"#utility.yul\":1960:1985   */\n      swap2\n      pop\n        /* \"#utility.yul\":1999:2019   */\n      tag_105\n        /* \"#utility.yul\":2017:2018   */\n      dup4\n        /* \"#utility.yul\":1999:2019   */\n      tag_69\n      jump\t// in\n    tag_105:\n        /* \"#utility.yul\":1994:2019   */\n      swap3\n      pop\n        /* \"#utility.yul\":2043:2044   */\n      dup3\n        /* \"#utility.yul\":2040:2041   */\n      dup3\n        /* \"#utility.yul\":2036:2045   */\n      sub\n        /* \"#utility.yul\":2028:2045   */\n      swap1\n      pop\n        /* \"#utility.yul\":2067:2068   */\n      dup2\n        /* \"#utility.yul\":2061:2065   */\n      dup2\n        /* \"#utility.yul\":2058:2069   */\n      gt\n        /* \"#utility.yul\":2055:2092   */\n      iszero\n      tag_106\n      jumpi\n        /* \"#utility.yul\":2072:2090   */\n      tag_107\n      tag_76\n      jump\t// in\n    tag_107:\n        /* \"#utility.yul\":2055:2092   */\n    tag_106:\n        /* \"#utility.yul\":1905:2099   */\n      swap3\n      swap2\n      pop\n      pop\n      jump\t// out\n        /* \"#utility.yul\":2105:2181   */\n    tag_77:\n        /* \"#utility.yul\":2141:2148   */\n      0x00\n        /* \"#utility.yul\":2170:2175   */\n      dup2\n        /* \"#utility.yul\":2159:2175   */\n      swap1\n      pop\n        /* \"#utility.yul\":2105:2181   */\n      swap2\n      swap1\n      pop\n      jump\t// out\n        /* \"#utility.yul\":2187:2559   */\n    tag_46:\n        /* \"#utility.yul\":2226:2230   */\n      0x00\n        /* \"#utility.yul\":2246:2265   */\n      tag_110\n        /* \"#utility.yul\":2263:2264   */\n      dup3\n        /* \"#utility.yul\":2246:2265   */\n      tag_77\n      jump\t// in\n    tag_110:\n        /* \"#utility.yul\":2241:2265   */\n      swap2\n      pop\n        /* \"#utility.yul\":2279:2298   */\n      tag_111\n        /* \"#utility.yul\":2296:2297   */\n      dup4\n        /* \"#utility.yul\":2279:2298   */\n      tag_77\n      jump\t// in\n    tag_111:\n        /* \"#utility.yul\":2274:2298   */\n      swap3\n      pop\n        /* \"#utility.yul\":2322:2323   */\n      dup3\n        /* \"#utility.yul\":2319:2320   */\n      dup3\n        /* \"#utility.yul\":2315:2324   */\n      sub\n        /* \"#utility.yul\":2307:2324   */\n      swap1\n      pop\n        /* \"#utility.yul\":2516:2517   */\n      dup2\n        /* \"#utility.yul\":2510:2514   */\n      dup2\n        /* \"#utility.yul\":2506:2518   */\n      slt\n        /* \"#utility.yul\":2502:2503   */\n      0x00\n        /* \"#utility.yul\":2499:2500   */\n      dup5\n        /* \"#utility.yul\":2495:2504   */\n      slt\n        /* \"#utility.yul\":2491:2519   */\n      and\n        /* \"#utility.yul\":2474:2475   */\n      dup3\n        /* \"#utility.yul\":2468:2472   */\n      dup3\n        /* \"#utility.yul\":2464:2476   */\n      sgt\n        /* \"#utility.yul\":2459:2460   */\n      0x00\n        /* \"#utility.yul\":2456:2457   */\n      dup6\n        /* \"#utility.yul\":2452:2461   */\n      slt\n        /* \"#utility.yul\":2445:2462   */\n      iszero\n        /* \"#utility.yul\":2441:2477   */\n      and\n        /* \"#utility.yul\":2425:2529   */\n      or\n        /* \"#utility.yul\":2422:2552   */\n      iszero\n      tag_112\n      jumpi\n        /* \"#utility.yul\":2532:2550   */\n      tag_113\n      tag_76\n      jump\t// in\n    tag_113:\n        /* \"#utility.yul\":2422:2552   */\n    tag_112:\n        /* \"#utility.yul\":2187:2559   */\n      swap3\n      swap2\n      pop\n      pop\n      jump\t// out\n        /* \"#utility.yul\":2565:2745   */\n    tag_56:\n        /* \"#utility.yul\":2613:2690   */\n      0x4e487b7100000000000000000000000000000000000000000000000000000000\n        /* \"#utility.yul\":2610:2611   */\n      0x00\n        /* \"#utility.yul\":2603:2691   */\n      mstore\n        /* \"#utility.yul\":2710:2714   */\n      0x12\n        /* \"#utility.yul\":2707:2708   */\n      0x04\n        /* \"#utility.yul\":2700:2715   */\n      mstore\n        /* \"#utility.yul\":2734:2738   */\n      0x24\n        /* \"#utility.yul\":2731:2732   */\n      0x00\n        /* \"#utility.yul\":2724:2739   */\n      revert\n\n    auxdata: 0xa264697066735822122096c6136d703ce9b34abb6cdd7c9b3bbc17eeeb08bf00a100d329e4213c775ed064736f6c634300081e0033\n}\n",
				"bytecode": {
					"linkReferences": {},
					"object": "60c060405234801561000f575f5ffd5b50604051610afa380380610afa8339818101604052810190610031919061007f565b81608081815250508060a0818152505050506100bd565b5f5ffd5b5f819050919050565b61005e8161004c565b8114610068575f5ffd5b50565b5f8151905061007981610055565b92915050565b5f5f6040838503121561009557610094610048565b5b5f6100a28582860161006b565b92505060206100b38582860161006b565b9150509250929050565b60805160a051610a016100f95f395f818160ec0152818161013601526101f201525f8181610112015281816101ce01526102990152610a015ff3fe608060405234801561000f575f5ffd5b506004361061004a575f3560e01c806332e7c5bf1461004e5780637cabb7cf1461006c578063901ce73e1461009c578063f446c1d0146100cc575b5f5ffd5b6100566100ea565b604051610063919061083d565b60405180910390f35b61008660048036038101906100819190610884565b61010e565b604051610093919061083d565b60405180910390f35b6100b660048036038101906100b19190610884565b6101ca565b6040516100c3919061083d565b60405180910390f35b6100d4610297565b6040516100e1919061083d565b60405180910390f35b7f000000000000000000000000000000000000000000000000000000000000000081565b5f5f7f000000000000000000000000000000000000000000000000000000000000000090505f7f000000000000000000000000000000000000000000000000000000000000000090505f61017361016e87846102bb90919063ffffffff16565b6102f0565b90505f61018b8385886104da9092919063ffffffff16565b8261019691906108ef565b9050866101b4846101a684610592565b6107eb90919063ffffffff16565b6101be9190610922565b94505050505092915050565b5f5f7f000000000000000000000000000000000000000000000000000000000000000090505f7f000000000000000000000000000000000000000000000000000000000000000090508385101561021f575f5ffd5b5f61023b61023687846102bb90919063ffffffff16565b6102f0565b90505f61026461025f87896102509190610922565b856102bb90919063ffffffff16565b6102f0565b90505f8183610273919061095e565b905061028a8185876104da9092919063ffffffff16565b9550505050505092915050565b7f000000000000000000000000000000000000000000000000000000000000000081565b5f815f19048311156102db5781156102da5763bac65e5b5f526004601cfd5b5b670de0b6b3a764000082840204905092915050565b5f7ffffffffffffffffffffffffffffffffffffffffffffffffdc0d0570925a462d78213156104d557680755bf798b4a1bf1e582126103365763a37bfec95f526004601cfd5b6503782dace9d9604e83901b816103505761034f61099e565b5b0591505f60606b8000000000000000000000006bb17217f7d1cf79abc9e3b398606086901b816103835761038261099e565b5b0501901d90506bb17217f7d1cf79abc9e3b3988102830392505f6c10fe68e7fd37d0007b713f7650840190506d02d16720577bd19bf614176fe9ea6060858302901d0190505f6d04a4fd9f2a8b96949216d2255a6c8583010390506e0587f503bb6ea29d25fcb7401964506060838302901d01905079d835ebba824c98fb31b83b2ca45c0000000000000000000000008582020190505f6c240c330e9fb2d9cbaf0fd5aafc860390506d0277594991cfc85f6e2461837cd96060878302901d0190506d1a521255e34f6a5061b25ef1c9c46060878302901d0390506db1bbb201f443cf962f1a1d3db4a56060878302901d0190506e02c72388d9f74f51a9331fed693f156060878302901d0390506e05180bb14799ab47a8a8cb2a527d576060878302901d01905080820594508360c30374029d9dc38563c32e5c2f6dc192ee70ef65f9978af38602901c9450505050505b919050565b5f828402905060011561058b5781838583041485151702610585575f198385098181108201810383858709845f03851682861161051e5763ae47f7025f526004601cfd5b808604955085600302600218808702600203810290508087026002038102905080870260020381029050808702600203810290508087026002038102905080818802600203028284880304600184855f03040188861187030217029550505050505061058b565b81810490505b9392505050565b5f816fffffffffffffffffffffffffffffffff1060071b905081811c67ffffffffffffffff1060061b8117905081811c63ffffffff1060051b8117905081811c61ffff1060041b8117905081811c60ff1060031b811790505f82136105fe57631615e6385f526004601cfd5b7ff8f9f9faf9fdfafbf9fdfcfdfafbfcfef9fafdfafcfcfbfefafafcfbffffffff6f8421084210842108cc6318c6db6d54be83831c1c601f161a8118905081811b609f1c91506c8c3f38e95a6b1ff2ab1c3b3437828384856c29508e458543d8aa4df2abee78010260601d6d0139601a2efabe717e604cbb4894010260601d6d02247f7a7b6594320649aa03aba1010260601d036d02384773bdf1ac5676facced609183820260601d0390506cb9a025d814b29c212b8b1a07ce83820260601d0390506c0a09507084cc699bb0e71ea86a60601b838202039050826c465772b2bbbb5f824b15207a300180840260601d6d0388eaa27412d5aca026815d636e01905080840260601d6d0df99ac502031bf953eff472fdcc01905080840260601d6d13cdffb29d51d99322bdff5f221101905080840260601d6d0a0f742023def783a307a986912e01905080840260601d6d01920d8043ca89b5239253284e4201905080840260601d6c0b7a86d7375468fac667a0a527019050808205915081711340daa0d5f769dba1915cef59f0815a55060291508183609f037d0267a36c0c95b3975ab3ee5b203a7614a3f75373f047d803ae7b6687f2b302019150817d57115e47018c7177eebf7cd370a3356a1b7863008a5ae8028c72b88642840191508160ae1d92505050919050565b5f670de0b6b3a76400005f19046001018310820261081057637c5f487d5f526004601cfd5b81670de0b6b3a7640000840204905092915050565b5f819050919050565b61083781610825565b82525050565b5f6020820190506108505f83018461082e565b92915050565b5f5ffd5b61086381610825565b811461086d575f5ffd5b50565b5f8135905061087e8161085a565b92915050565b5f5f6040838503121561089a57610899610856565b5b5f6108a785828601610870565b92505060206108b885828601610870565b9150509250929050565b7f4e487b71000000000000000000000000000000000000000000000000000000005f52601160045260245ffd5b5f6108f982610825565b915061090483610825565b925082820190508082111561091c5761091b6108c2565b5b92915050565b5f61092c82610825565b915061093783610825565b925082820390508181111561094f5761094e6108c2565b5b92915050565b5f819050919050565b5f61096882610955565b915061097383610955565b925082820390508181125f8412168282135f851215161715610998576109976108c2565b5b92915050565b7f4e487b71000000000000000000000000000000000000000000000000000000005f52601260045260245ffdfea264697066735822122096c6136d703ce9b34abb6cdd7c9b3bbc17eeeb08bf00a100d329e4213c775ed064736f6c634300081e0033",
					"opcodes": "PUSH1 0xC0 PUSH1 0x40 MSTORE CALLVALUE DUP1 ISZERO PUSH2 0xF JUMPI PUSH0 PUSH0 REVERT JUMPDEST POP PUSH1 0x40 MLOAD PUSH2 0xAFA CODESIZE SUB DUP1 PUSH2 0xAFA DUP4 CODECOPY DUP2 DUP2 ADD PUSH1 0x40 MSTORE DUP2 ADD SWAP1 PUSH2 0x31 SWAP2 SWAP1 PUSH2 0x7F JUMP JUMPDEST DUP2 PUSH1 0x80 DUP2 DUP2 MSTORE POP POP DUP1 PUSH1 0xA0 DUP2 DUP2 MSTORE POP POP POP POP PUSH2 0xBD JUMP JUMPDEST PUSH0 PUSH0 REVERT JUMPDEST PUSH0 DUP2 SWAP1 POP SWAP2 SWAP1 POP JUMP JUMPDEST PUSH2 0x5E DUP2 PUSH2 0x4C JUMP JUMPDEST DUP2 EQ PUSH2 0x68 JUMPI PUSH0 PUSH0 REVERT JUMPDEST POP JUMP JUMPDEST PUSH0 DUP2 MLOAD SWAP1 POP PUSH2 0x79 DUP2 PUSH2 0x55 JUMP JUMPDEST SWAP3 SWAP2 POP POP JUMP JUMPDEST PUSH0 PUSH0 PUSH1 0x40 DUP4 DUP6 SUB SLT ISZERO PUSH2 0x95 JUMPI PUSH2 0x94 PUSH2 0x48 JUMP JUMPDEST JUMPDEST PUSH0 PUSH2 0xA2 DUP6 DUP3 DUP7 ADD PUSH2 0x6B JUMP JUMPDEST SWAP3 POP POP PUSH1 0x20 PUSH2 0xB3 DUP6 DUP3 DUP7 ADD PUSH2 0x6B JUMP JUMPDEST SWAP2 POP POP SWAP3 POP SWAP3 SWAP1 POP JUMP JUMPDEST PUSH1 0x80 MLOAD PUSH1 0xA0 MLOAD PUSH2 0xA01 PUSH2 0xF9 PUSH0 CODECOPY PUSH0 DUP2 DUP2 PUSH1 0xEC ADD MSTORE DUP2 DUP2 PUSH2 0x136 ADD MSTORE PUSH2 0x1F2 ADD MSTORE PUSH0 DUP2 DUP2 PUSH2 0x112 ADD MSTORE DUP2 DUP2 PUSH2 0x1CE ADD MSTORE PUSH2 0x299 ADD MSTORE PUSH2 0xA01 PUSH0 RETURN INVALID PUSH1 0x80 PUSH1 0x40 MSTORE CALLVALUE DUP1 ISZERO PUSH2 0xF JUMPI PUSH0 PUSH0 REVERT JUMPDEST POP PUSH1 0x4 CALLDATASIZE LT PUSH2 0x4A JUMPI PUSH0 CALLDATALOAD PUSH1 0xE0 SHR DUP1 PUSH4 0x32E7C5BF EQ PUSH2 0x4E JUMPI DUP1 PUSH4 0x7CABB7CF EQ PUSH2 0x6C JUMPI DUP1 PUSH4 0x901CE73E EQ PUSH2 0x9C JUMPI DUP1 PUSH4 0xF446C1D0 EQ PUSH2 0xCC JUMPI JUMPDEST PUSH0 PUSH0 REVERT JUMPDEST PUSH2 0x56 PUSH2 0xEA JUMP JUMPDEST PUSH1 0x40 MLOAD PUSH2 0x63 SWAP2 SWAP1 PUSH2 0x83D JUMP JUMPDEST PUSH1 0x40 MLOAD DUP1 SWAP2 SUB SWAP1 RETURN JUMPDEST PUSH2 0x86 PUSH1 0x4 DUP1 CALLDATASIZE SUB DUP2 ADD SWAP1 PUSH2 0x81 SWAP2 SWAP1 PUSH2 0x884 JUMP JUMPDEST PUSH2 0x10E JUMP JUMPDEST PUSH1 0x40 MLOAD PUSH2 0x93 SWAP2 SWAP1 PUSH2 0x83D JUMP JUMPDEST PUSH1 0x40 MLOAD DUP1 SWAP2 SUB SWAP1 RETURN JUMPDEST PUSH2 0xB6 PUSH1 0x4 DUP1 CALLDATASIZE SUB DUP2 ADD SWAP1 PUSH2 0xB1 SWAP2 SWAP1 PUSH2 0x884 JUMP JUMPDEST PUSH2 0x1CA JUMP JUMPDEST PUSH1 0x40 MLOAD PUSH2 0xC3 SWAP2 SWAP1 PUSH2 0x83D JUMP JUMPDEST PUSH1 0x40 MLOAD DUP1 SWAP2 SUB SWAP1 RETURN JUMPDEST PUSH2 0xD4 PUSH2 0x297 JUMP JUMPDEST PUSH1 0x40 MLOAD PUSH2 0xE1 SWAP2 SWAP1 PUSH2 0x83D JUMP JUMPDEST PUSH1 0x40 MLOAD DUP1 SWAP2 SUB SWAP1 RETURN JUMPDEST PUSH32 0x0 DUP2 JUMP JUMPDEST PUSH0 PUSH0 PUSH32 0x0 SWAP1 POP PUSH0 PUSH32 0x0 SWAP1 POP PUSH0 PUSH2 0x173 PUSH2 0x16E DUP8 DUP5 PUSH2 0x2BB SWAP1 SWAP2 SWAP1 PUSH4 0xFFFFFFFF AND JUMP JUMPDEST PUSH2 0x2F0 JUMP JUMPDEST SWAP1 POP PUSH0 PUSH2 0x18B DUP4 DUP6 DUP9 PUSH2 0x4DA SWAP1 SWAP3 SWAP2 SWAP1 PUSH4 0xFFFFFFFF AND JUMP JUMPDEST DUP3 PUSH2 0x196 SWAP2 SWAP1 PUSH2 0x8EF JUMP JUMPDEST SWAP1 POP DUP7 PUSH2 0x1B4 DUP5 PUSH2 0x1A6 DUP5 PUSH2 0x592 JUMP JUMPDEST PUSH2 0x7EB SWAP1 SWAP2 SWAP1 PUSH4 0xFFFFFFFF AND JUMP JUMPDEST PUSH2 0x1BE SWAP2 SWAP1 PUSH2 0x922 JUMP JUMPDEST SWAP5 POP POP POP POP POP SWAP3 SWAP2 POP POP JUMP JUMPDEST PUSH0 PUSH0 PUSH32 0x0 SWAP1 POP PUSH0 PUSH32 0x0 SWAP1 POP DUP4 DUP6 LT ISZERO PUSH2 0x21F JUMPI PUSH0 PUSH0 REVERT JUMPDEST PUSH0 PUSH2 0x23B PUSH2 0x236 DUP8 DUP5 PUSH2 0x2BB SWAP1 SWAP2 SWAP1 PUSH4 0xFFFFFFFF AND JUMP JUMPDEST PUSH2 0x2F0 JUMP JUMPDEST SWAP1 POP PUSH0 PUSH2 0x264 PUSH2 0x25F DUP8 DUP10 PUSH2 0x250 SWAP2 SWAP1 PUSH2 0x922 JUMP JUMPDEST DUP6 PUSH2 0x2BB SWAP1 SWAP2 SWAP1 PUSH4 0xFFFFFFFF AND JUMP JUMPDEST PUSH2 0x2F0 JUMP JUMPDEST SWAP1 POP PUSH0 DUP2 DUP4 PUSH2 0x273 SWAP2 SWAP1 PUSH2 0x95E JUMP JUMPDEST SWAP1 POP PUSH2 0x28A DUP2 DUP6 DUP8 PUSH2 0x4DA SWAP1 SWAP3 SWAP2 SWAP1 PUSH4 0xFFFFFFFF AND JUMP JUMPDEST SWAP6 POP POP POP POP POP POP SWAP3 SWAP2 POP POP JUMP JUMPDEST PUSH32 0x0 DUP2 JUMP JUMPDEST PUSH0 DUP2 PUSH0 NOT DIV DUP4 GT ISZERO PUSH2 0x2DB JUMPI DUP2 ISZERO PUSH2 0x2DA JUMPI PUSH4 0xBAC65E5B PUSH0 MSTORE PUSH1 0x4 PUSH1 0x1C REVERT JUMPDEST JUMPDEST PUSH8 0xDE0B6B3A7640000 DUP3 DUP5 MUL DIV SWAP1 POP SWAP3 SWAP2 POP POP JUMP JUMPDEST PUSH0 PUSH32 0xFFFFFFFFFFFFFFFFFFFFFFFFFFFFFFFFFFFFFFFFFFFFFFFDC0D0570925A462D7 DUP3 SGT ISZERO PUSH2 0x4D5 JUMPI PUSH9 0x755BF798B4A1BF1E5 DUP3 SLT PUSH2 0x336 JUMPI PUSH4 0xA37BFEC9 PUSH0 MSTORE PUSH1 0x4 PUSH1 0x1C REVERT JUMPDEST PUSH6 0x3782DACE9D9 PUSH1 0x4E DUP4 SWAP1 SHL DUP2 PUSH2 0x350 JUMPI PUSH2 0x34F PUSH2 0x99E JUMP JUMPDEST JUMPDEST SDIV SWAP2 POP PUSH0 PUSH1 0x60 PUSH12 0x800000000000000000000000 PUSH12 0xB17217F7D1CF79ABC9E3B398 PUSH1 0x60 DUP7 SWAP1 SHL DUP2 PUSH2 0x383 JUMPI PUSH2 0x382 PUSH2 0x99E JUMP JUMPDEST JUMPDEST SDIV ADD SWAP1 SAR SWAP1 POP PUSH12 0xB17217F7D1CF79ABC9E3B398 DUP2 MUL DUP4 SUB SWAP3 POP PUSH0 PUSH13 0x10FE68E7FD37D0007B713F7650 DUP5 ADD SWAP1 POP PUSH14 0x2D16720577BD19BF614176FE9EA PUSH1 0x60 DUP6 DUP4 MUL SWAP1 SAR ADD SWAP1 POP PUSH0 PUSH14 0x4A4FD9F2A8B96949216D2255A6C DUP6 DUP4 ADD SUB SWAP1 POP PUSH15 0x587F503BB6EA29D25FCB740196450 PUSH1 0x60 DUP4 DUP4 MUL SWAP1 SAR ADD SWAP1 POP PUSH26 0xD835EBBA824C98FB31B83B2CA45C000000000000000000000000 DUP6 DUP3 MUL ADD SWAP1 POP PUSH0 PUSH13 0x240C330E9FB2D9CBAF0FD5AAFC DUP7 SUB SWAP1 POP PUSH14 0x277594991CFC85F6E2461837CD9 PUSH1 0x60 DUP8 DUP4 MUL SWAP1 SAR ADD SWAP1 POP PUSH14 0x1A521255E34F6A5061B25EF1C9C4 PUSH1 0x60 DUP8 DUP4 MUL SWAP1 SAR SUB SWAP1 POP PUSH14 0xB1BBB201F443CF962F1A1D3DB4A5 PUSH1 0x60 DUP8 DUP4 MUL SWAP1 SAR ADD SWAP1 POP PUSH15 0x2C72388D9F74F51A9331FED693F15 PUSH1 0x60 DUP8 DUP4 MUL SWAP1 SAR SUB SWAP1 POP PUSH15 0x5180BB14799AB47A8A8CB2A527D57 PUSH1 0x60 DUP8 DUP4 MUL SWAP1 SAR ADD SWAP1 POP DUP1 DUP3 SDIV SWAP5 POP DUP4 PUSH1 0xC3 SUB PUSH21 0x29D9DC38563C32E5C2F6DC192EE70EF65F9978AF3 DUP7 MUL SWAP1 SHR SWAP5 POP POP POP POP POP JUMPDEST SWAP2 SWAP1 POP JUMP JUMPDEST PUSH0 DUP3 DUP5 MUL SWAP1 POP PUSH1 0x1 ISZERO PUSH2 0x58B JUMPI DUP2 DUP4 DUP6 DUP4 DIV EQ DUP6 ISZERO OR MUL PUSH2 0x585 JUMPI PUSH0 NOT DUP4 DUP6 MULMOD DUP2 DUP2 LT DUP3 ADD DUP2 SUB DUP4 DUP6 DUP8 MULMOD DUP5 PUSH0 SUB DUP6 AND DUP3 DUP7 GT PUSH2 0x51E JUMPI PUSH4 0xAE47F702 PUSH0 MSTORE PUSH1 0x4 PUSH1 0x1C REVERT JUMPDEST DUP1 DUP7 DIV SWAP6 POP DUP6 PUSH1 0x3 MUL PUSH1 0x2 XOR DUP1 DUP8 MUL PUSH1 0x2 SUB DUP2 MUL SWAP1 POP DUP1 DUP8 MUL PUSH1 0x2 SUB DUP2 MUL SWAP1 POP DUP1 DUP8 MUL PUSH1 0x2 SUB DUP2 MUL SWAP1 POP DUP1 DUP8 MUL PUSH1 0x2 SUB DUP2 MUL SWAP1 POP DUP1 DUP8 MUL PUSH1 0x2 SUB DUP2 MUL SWAP1 POP DUP1 DUP2 DUP9 MUL PUSH1 0x2 SUB MUL DUP3 DUP5 DUP9 SUB DIV PUSH1 0x1 DUP5 DUP6 PUSH0 SUB DIV ADD DUP9 DUP7 GT DUP8 SUB MUL OR MUL SWAP6 POP POP POP POP POP POP PUSH2 0x58B JUMP JUMPDEST DUP2 DUP2 DIV SWAP1 POP JUMPDEST SWAP4 SWAP3 POP POP POP JUMP JUMPDEST PUSH0 DUP2 PUSH16 0xFFFFFFFFFFFFFFFFFFFFFFFFFFFFFFFF LT PUSH1 0x7 SHL SWAP1 POP DUP2 DUP2 SHR PUSH8 0xFFFFFFFFFFFFFFFF LT PUSH1 0x6 SHL DUP2 OR SWAP1 POP DUP2 DUP2 SHR PUSH4 0xFFFFFFFF LT PUSH1 0x5 SHL DUP2 OR SWAP1 POP DUP2 DUP2 SHR PUSH2 0xFFFF LT PUSH1 0x4 SHL DUP2 OR SWAP1 POP DUP2 DUP2 SHR PUSH1 0xFF LT PUSH1 0x3 SHL DUP2 OR SWAP1 POP PUSH0 DUP3 SGT PUSH2 0x5FE JUMPI PUSH4 0x1615E638 PUSH0 MSTORE PUSH1 0x4 PUSH1 0x1C REVERT JUMPDEST PUSH32 0xF8F9F9FAF9FDFAFBF9FDFCFDFAFBFCFEF9FAFDFAFCFCFBFEFAFAFCFBFFFFFFFF PUSH16 0x8421084210842108CC6318C6DB6D54BE DUP4 DUP4 SHR SHR PUSH1 0x1F AND BYTE DUP2 XOR SWAP1 POP DUP2 DUP2 SHL PUSH1 0x9F SHR SWAP2 POP PUSH13 0x8C3F38E95A6B1FF2AB1C3B3437 DUP3 DUP4 DUP5 DUP6 PUSH13 0x29508E458543D8AA4DF2ABEE78 ADD MUL PUSH1 0x60 SAR PUSH14 0x139601A2EFABE717E604CBB4894 ADD MUL PUSH1 0x60 SAR PUSH14 0x2247F7A7B6594320649AA03ABA1 ADD MUL PUSH1 0x60 SAR SUB PUSH14 0x2384773BDF1AC5676FACCED6091 DUP4 DUP3 MUL PUSH1 0x60 SAR SUB SWAP1 POP PUSH13 0xB9A025D814B29C212B8B1A07CE DUP4 DUP3 MUL PUSH1 0x60 SAR SUB SWAP1 POP PUSH13 0xA09507084CC699BB0E71EA86A PUSH1 0x60 SHL DUP4 DUP3 MUL SUB SWAP1 POP DUP3 PUSH13 0x465772B2BBBB5F824B15207A30 ADD DUP1 DUP5 MUL PUSH1 0x60 SAR PUSH14 0x388EAA27412D5ACA026815D636E ADD SWAP1 POP DUP1 DUP5 MUL PUSH1 0x60 SAR PUSH14 0xDF99AC502031BF953EFF472FDCC ADD SWAP1 POP DUP1 DUP5 MUL PUSH1 0x60 SAR PUSH14 0x13CDFFB29D51D99322BDFF5F2211 ADD SWAP1 POP DUP1 DUP5 MUL PUSH1 0x60 SAR PUSH14 0xA0F742023DEF783A307A986912E ADD SWAP1 POP DUP1 DUP5 MUL PUSH1 0x60 SAR PUSH14 0x1920D8043CA89B5239253284E42 ADD SWAP1 POP DUP1 DUP5 MUL PUSH1 0x60 SAR PUSH13 0xB7A86D7375468FAC667A0A527 ADD SWAP1 POP DUP1 DUP3 SDIV SWAP2 POP DUP2 PUSH18 0x1340DAA0D5F769DBA1915CEF59F0815A5506 MUL SWAP2 POP DUP2 DUP4 PUSH1 0x9F SUB PUSH30 0x267A36C0C95B3975AB3EE5B203A7614A3F75373F047D803AE7B6687F2B3 MUL ADD SWAP2 POP DUP2 PUSH30 0x57115E47018C7177EEBF7CD370A3356A1B7863008A5AE8028C72B8864284 ADD SWAP2 POP DUP2 PUSH1 0xAE SAR SWAP3 POP POP POP SWAP2 SWAP1 POP JUMP JUMPDEST PUSH0 PUSH8 0xDE0B6B3A7640000 PUSH0 NOT DIV PUSH1 0x1 ADD DUP4 LT DUP3 MUL PUSH2 0x810 JUMPI PUSH4 0x7C5F487D PUSH0 MSTORE PUSH1 0x4 PUSH1 0x1C REVERT JUMPDEST DUP2 PUSH8 0xDE0B6B3A7640000 DUP5 MUL DIV SWAP1 POP SWAP3 SWAP2 POP POP JUMP JUMPDEST PUSH0 DUP2 SWAP1 POP SWAP2 SWAP1 POP JUMP JUMPDEST PUSH2 0x837 DUP2 PUSH2 0x825 JUMP JUMPDEST DUP3 MSTORE POP POP JUMP JUMPDEST PUSH0 PUSH1 0x20 DUP3 ADD SWAP1 POP PUSH2 0x850 PUSH0 DUP4 ADD DUP5 PUSH2 0x82E JUMP JUMPDEST SWAP3 SWAP2 POP POP JUMP JUMPDEST PUSH0 PUSH0 REVERT JUMPDEST PUSH2 0x863 DUP2 PUSH2 0x825 JUMP JUMPDEST DUP2 EQ PUSH2 0x86D JUMPI PUSH0 PUSH0 REVERT JUMPDEST POP JUMP JUMPDEST PUSH0 DUP2 CALLDATALOAD SWAP1 POP PUSH2 0x87E DUP2 PUSH2 0x85A JUMP JUMPDEST SWAP3 SWAP2 POP POP JUMP JUMPDEST PUSH0 PUSH0 PUSH1 0x40 DUP4 DUP6 SUB SLT ISZERO PUSH2 0x89A JUMPI PUSH2 0x899 PUSH2 0x856 JUMP JUMPDEST JUMPDEST PUSH0 PUSH2 0x8A7 DUP6 DUP3 DUP7 ADD PUSH2 0x870 JUMP JUMPDEST SWAP3 POP POP PUSH1 0x20 PUSH2 0x8B8 DUP6 DUP3 DUP7 ADD PUSH2 0x870 JUMP JUMPDEST SWAP2 POP POP SWAP3 POP SWAP3 SWAP1 POP JUMP JUMPDEST PUSH32 0x4E487B7100000000000000000000000000000000000000000000000000000000 PUSH0 MSTORE PUSH1 0x11 PUSH1 0x4 MSTORE PUSH1 0x24 PUSH0 REVERT JUMPDEST PUSH0 PUSH2 0x8F9 DUP3 PUSH2 0x825 JUMP JUMPDEST SWAP2 POP PUSH2 0x904 DUP4 PUSH2 0x825 JUMP JUMPDEST SWAP3 POP DUP3 DUP3 ADD SWAP1 POP DUP1 DUP3 GT ISZERO PUSH2 0x91C JUMPI PUSH2 0x91B PUSH2 0x8C2 JUMP JUMPDEST JUMPDEST SWAP3 SWAP2 POP POP JUMP JUMPDEST PUSH0 PUSH2 0x92C DUP3 PUSH2 0x825 JUMP JUMPDEST SWAP2 POP PUSH2 0x937 DUP4 PUSH2 0x825 JUMP JUMPDEST SWAP3 POP DUP3 DUP3 SUB SWAP1 POP DUP2 DUP2 GT ISZERO PUSH2 0x94F JUMPI PUSH2 0x94E PUSH2 0x8C2 JUMP JUMPDEST JUMPDEST SWAP3 SWAP2 POP POP JUMP JUMPDEST PUSH0 DUP2 SWAP1 POP SWAP2 SWAP1 POP JUMP JUMPDEST PUSH0 PUSH2 0x968 DUP3 PUSH2 0x955 JUMP JUMPDEST SWAP2 POP PUSH2 0x973 DUP4 PUSH2 0x955 JUMP JUMPDEST SWAP3 POP DUP3 DUP3 SUB SWAP1 POP DUP2 DUP2 SLT PUSH0 DUP5 SLT AND DUP3 DUP3 SGT PUSH0 DUP6 SLT ISZERO AND OR ISZERO PUSH2 0x998 JUMPI PUSH2 0x997 PUSH2 0x8C2 JUMP JUMPDEST JUMPDEST SWAP3 SWAP2 POP POP JUMP JUMPDEST PUSH32 0x4E487B7100000000000000000000000000000000000000000000000000000000 PUSH0 MSTORE PUSH1 0x12 PUSH1 0x4 MSTORE PUSH1 0x24 PUSH0 REVERT INVALID LOG2 PUSH5 0x6970667358 0x22 SLT KECCAK256 SWAP7 0xC6 SGT PUSH14 0x703CE9B34ABB6CDD7C9B3BBC17EE 0xEB ADDMOD 0xBF STOP LOG1 STOP 0xD3 0x29 RETF 0x21 EXTCODECOPY PUSH24 0x5ED064736F6C634300081E00330000000000000000000000 "
				},
				"gasEstimates": {
					"creation": {
						"codeDepositCost": "512200",
						"executionCost": "infinite",
						"totalCost": "infinite"
					},
					"external": {
						"A()": "infinite",
						"B()": "infinite",
						"getAmountOut(uint256,uint256)": "infinite",
						"getFundsReceived(uint256,uint256)": "infinite"
					}
				},
				"methodIdentifiers": {
					"A()": "f446c1d0",
					"B()": "32e7c5bf",
					"getAmountOut(uint256,uint256)": "7cabb7cf",
					"getFundsReceived(uint256,uint256)": "901ce73e"
				}
			},
			"storageLayout": {
				"storage": [],
				"types": null
			},
			"userdoc": {
				"kind": "user",
				"methods": {},
				"version": 1
			}
		}
	}
}