{
	"data": {
		"bytecode": {
			"linkReferences": {},
			"object": "60c060405234801561000f575f5ffd5b50604051610afa380380610afa8339818101604052810190610031919061007f565b81608081815250508060a0818152505050506100bd565b5f5ffd5b5f819050919050565b61005e8161004c565b8114610068575f5ffd5b50565b5f8151905061007981610055565b92915050565b5f5f6040838503121561009557610094610048565b5b5f6100a28582860161006b565b92505060206100b38582860161006b565b9150509250929050565b60805160a051610a016100f95f395f818160ec0152818161013601526101f201525f8181610112015281816101ce01526102990152610a015ff3fe608060405234801561000f575f5ffd5b506004361061004a575f3560e01c806332e7c5bf1461004e5780637cabb7cf1461006c578063901ce73e1461009c578063f446c1d0146100cc575b5f5ffd5b6100566100ea565b604051610063919061083d565b60405180910390f35b61008660048036038101906100819190610884565b61010e565b604051610093919061083d565b60405180910390f35b6100b660048036038101906100b19190610884565b6101ca565b6040516100c3919061083d565b60405180910390f35b6100d4610297565b6040516100e1919061083d565b60405180910390f35b7f000000000000000000000000000000000000000000000000000000000000000081565b5f5f7f000000000000000000000000000000000000000000000000000000000000000090505f7f000000000000000000000000000000000000000000000000000000000000000090505f61017361016e87846102bb90919063ffffffff16565b6102f0565b90505f61018b8385886104da9092919063ffffffff16565b8261019691906108ef565b9050866101b4846101a684610592565b6107eb90919063ffffffff16565b6101be9190610922565b94505050505092915050565b5f5f7f000000000000000000000000000000000000000000000000000000000000000090505f7f000000000000000000000000000000000000000000000000000000000000000090508385101561021f575f5ffd5b5f61023b61023687846102bb90919063ffffffff16565b6102f0565b90505f61026461025f87896102509190610922565b856102bb90919063ffffffff16565b6102f0565b90505f8183610273919061095e565b905061028a8185876104da9092919063ffffffff16565b9550505050505092915050565b7f000000000000000000000000000000000000000000000000000000000000000081565b5f815f19048311156102db5781156102da5763bac65e5b5f526004601cfd5b5b670de0b6b3a764000082840204905092915050565b5f7ffffffffffffffffffffffffffffffffffffffffffffffffdc0d0570925a462d78213156104d557680755bf798b4a1bf1e582126103365763a37bfec95f526004601cfd5b6503782dace9d9604e83901b816103505761034f61099e565b5b0591505f60606b8000000000000000000000006bb17217f7d1cf79abc9e3b398606086901b816103835761038261099e565b5b0501901d90506bb17217f7d1cf79abc9e3b3988102830392505f6c10fe68e7fd37d0007b713f7650840190506d02d16720577bd19bf614176fe9ea6060858302901d0190505f6d04a4fd9f2a8b96949216d2255a6c8583010390506e0587f503bb6ea29d25fcb7401964506060838302901d01905079d835ebba824c98fb31b83b2ca45c0000000000000000000000008582020190505f6c240c330e9fb2d9cbaf0fd5aafc860390506d0277594991cfc85f6e2461837cd96060878302901d0190506d1a521255e34f6a5061b25ef1c9c46060878302901d0390506db1bbb201f443cf962f1a1d3db4a56060878302901d0190506e02c72388d9f74f51a9331fed693f156060878302901d0390506e05180bb14799ab47a8a8cb2a527d576060878302901d01905080820594508360c30374029d9dc38563c32e5c2f6dc192ee70ef65f9978af38602901c9450505050505b919050565b5f828402905060011561058b5781838583041485151702610585575f198385098181108201810383858709845f03851682861161051e5763ae47f7025f526004601cfd5b808604955085600302600218808702600203810290508087026002038102905080870260020381029050808702600203810290508087026002038102905080818802600203028284880304600184855f03040188861187030217029550505050505061058b565b81810490505b9392505050565b5f816fffffffffffffffffffffffffffffffff1060071b905081811c67ffffffffffffffff1060061b8117905081811c63ffffffff1060051b8117905081811c61ffff1060041b8117905081811c60ff1060031b811790505f82136105fe57631615e6385f526004601cfd5b7ff8f9f9faf9fdfafbf9fdfcfdfafbfcfef9fafdfafcfcfbfefafafcfbffffffff6f8421084210842108cc6318c6db6d54be83831c1c601f161a8118905081811b609f1c91506c8c3f38e95a6b1ff2ab1c3b3437828384856c29508e458543d8aa4df2abee78010260601d6d0139601a2efabe717e604cbb4894010260601d6d02247f7a7b6594320649aa03aba1010260601d036d02384773bdf1ac5676facced609183820260601d0390506cb9a025d814b29c212b8b1a07ce83820260601d0390506c0a09507084cc699bb0e71ea86a60601b838202039050826c465772b2bbbb5f824b15207a300180840260601d6d0388eaa27412d5aca026815d636e01905080840260601d6d0df99ac502031bf953eff472fdcc01905080840260601d6d13cdffb29d51d99322bdff5f221101905080840260601d6d0a0f742023def783a307a986912e01905080840260601d6d01920d8043ca89b5239253284e4201905080840260601d6c0b7a86d7375468fac667a0a527019050808205915081711340daa0d5f769dba1915cef59f0815a55060291508183609f037d0267a36c0c95b3975ab3ee5b203a7614a3f75373f047d803ae7b6687f2b302019150817d57115e47018c7177eebf7cd370a3356a1b7863008a5ae8028c72b88642840191508160ae1d92505050919050565b5f670de0b6b3a76400005f19046001018310820261081057637c5f487d5f526004601cfd5b81670de0b6b3a7640000840204905092915050565b5f819050919050565b61083781610825565b82525050565b5f6020820190506108505f83018461082e565b92915050565b5f5ffd5b61086381610825565b811461086d575f5ffd5b50565b5f8135905061087e8161085a565b92915050565b5f5f6040838503121561089a57610899610856565b5b5f6108a785828601610870565b92505060206108b885828601610870565b9150509250929050565b7f4e487b71000000000000000000000000000000000000000000000000000000005f52601160045260245ffd5b5f6108f982610825565b915061090483610825565b925082820190508082111561091c5761091b6108c2565b5b92915050565b5f61092c82610825565b915061093783610825565b925082820390508181111561094f5761094e6108c2565b5b92915050565b5f819050919050565b5f61096882610955565b915061097383610955565b925082820390508181125f8412168282135f851215161715610998576109976108c2565b5b92915050565b7f4e487b71000000000000000000000000000000000000000000000000000000005f52601260045260245ffdfea264697066735822122096c6136d703ce9b34abb6cdd7c9b3bbc17eeeb08bf00a100d329e4213c775ed064736f6c634300081e0033",
			"opcodes": "PUSH1 0xC0 PUSH1 0x40 MSTORE CALLVALUE DUP1 ISZERO PUSH2 0xF JUMPI PUSH0 PUSH0 REVERT JUMPDEST POP PUSH1 0x40 MLOAD PUSH2 0xAFA CODESIZE SUB DUP1 PUSH2 0xAFA DUP4 CODECOPY DUP2 DUP2 ADD PUSH1 0x40 MSTORE DUP2 ADD SWAP1 PUSH2 0x31 SWAP2 SWAP1 PUSH2 0x7F JUMP JUMPDEST DUP2 PUSH1 0x80 DUP2 DUP2 MSTORE POP POP DUP1 PUSH1 0xA0 DUP2 DUP2 MSTORE POP POP POP POP PUSH2 0xBD JUMP JUMPDEST PUSH0 PUSH0 REVERT JUMPDEST PUSH0 DUP2 SWAP1 POP SWAP2 SWAP1 POP JUMP JUMPDEST PUSH2 0x5E DUP2 PUSH2 0x4C JUMP JUMPDEST DUP2 EQ PUSH2 0x68 JUMPI PUSH0 PUSH0 REVERT JUMPDEST POP JUMP JUMPDEST PUSH0 DUP2 MLOAD SWAP1 POP PUSH2 0x79 DUP2 PUSH2 0x55 JUMP JUMPDEST SWAP3 SWAP2 POP POP JUMP JUMPDEST PUSH0 PUSH0 PUSH1 0x40 DUP4 DUP6 SUB SLT ISZERO PUSH2 0x95 JUMPI PUSH2 0x94 PUSH2 0x48 JUMP JUMPDEST JUMPDEST PUSH0 PUSH2 0xA2 DUP6 DUP3 DUP7 ADD PUSH2 0x6B JUMP JUMPDEST SWAP3 POP POP PUSH1 0x20 PUSH2 0xB3 DUP6 DUP3 DUP7 ADD PUSH2 0x6B JUMP JUMPDEST SWAP2 POP POP SWAP3 POP SWAP3 SWAP1 POP JUMP JUMPDEST PUSH1 0x80 MLOAD PUSH1 0xA0 MLOAD PUSH2 0xA01 PUSH2 0xF9 PUSH0 CODECOPY PUSH0 DUP2 DUP2 PUSH1 0xEC ADD MSTORE DUP2 DUP2 PUSH2 0x136 ADD MSTORE PUSH2 0x1F2 ADD MSTORE PUSH0 DUP2 DUP2 PUSH2 0x112 ADD MSTORE DUP2 DUP2 PUSH2 0x1CE ADD MSTORE PUSH2 0x299 ADD MSTORE PUSH2 0xA01 PUSH0 RETURN INVALID PUSH1 0x80 PUSH1 0x40 MSTORE CALLVALUE DUP1 ISZERO PUSH2 0xF JUMPI PUSH0 PUSH0 REVERT JUMPDEST POP PUSH1 0x4 CALLDATASIZE LT PUSH2 0x4A JUMPI PUSH0 CALLDATALOAD PUSH1 0xE0 SHR DUP1 PUSH4 0x32E7C5BF EQ PUSH2 0x4E JUMPI DUP1 PUSH4 0x7CABB7CF EQ PUSH2 0x6C JUMPI DUP1 PUSH4 0x901CE73E EQ PUSH2 0x9C JUMPI DUP1 PUSH4 0xF446C1D0 EQ PUSH2 0xCC JUMPI JUMPDEST PUSH0 PUSH0 REVERT JUMPDEST PUSH2 0x56 PUSH2 0xEA JUMP JUMPDEST PUSH1 0x40 MLOAD PUSH2 0x63 SWAP2 SWAP1 PUSH2 0x83D JUMP JUMPDEST PUSH1 0x40 MLOAD DUP1 SWAP2 SUB SWAP1 RETURN JUMPDEST PUSH2 0x86 PUSH1 0x4 DUP1 CALLDATASIZE SUB DUP2 ADD SWAP1 PUSH2 0x81 SWAP2 SWAP1 PUSH2 0x884 JUMP JUMPDEST PUSH2 0x10E JUMP JUMPDEST PUSH1 0x40 MLOAD PUSH2 0x93 SWAP2 SWAP1 PUSH2 0x83D JUMP JUMPDEST PUSH1 0x40 MLOAD DUP1 SWAP2 SUB SWAP1 RETURN JUMPDEST PUSH2 0xB6 PUSH1 0x4 DUP1 CALLDATASIZE SUB DUP2 ADD SWAP1 PUSH2 0xB1 SWAP2 SWAP1 PUSH2 0x884 JUMP JUMPDEST PUSH2 0x1CA JUMP JUMPDEST PUSH1 0x40 MLOAD PUSH2 0xC3 SWAP2 SWAP1 PUSH2 0x83D JUMP JUMPDEST PUSH1 0x40 MLOAD DUP1 SWAP2 SUB SWAP1 RETURN JUMPDEST PUSH2 0xD4 PUSH2 0x297 JUMP JUMPDEST PUSH1 0x40 MLOAD PUSH2 0xE1 SWAP2 SWAP1 PUSH2 0x83D JUMP JUMPDEST PUSH1 0x40 MLOAD DUP1 SWAP2 SUB SWAP1 RETURN JUMPDEST PUSH32 0x0 DUP2 JUMP JUMPDEST PUSH0 PUSH0 PUSH32 0x0 SWAP1 POP PUSH0 PUSH32 0x0 SWAP1 POP PUSH0 PUSH2 0x173 PUSH2 0x16E DUP8 DUP5 PUSH2 0x2BB SWAP1 SWAP2 SWAP1 PUSH4 0xFFFFFFFF AND JUMP JUMPDEST PUSH2 0x2F0 JUMP JUMPDEST SWAP1 POP PUSH0 PUSH2 0x18B DUP4 DUP6 DUP9 PUSH2 0x4DA SWAP1 SWAP3 SWAP2 SWAP1 PUSH4 0xFFFFFFFF AND JUMP JUMPDEST DUP3 PUSH2 0x196 SWAP2 SWAP1 PUSH2 0x8EF JUMP JUMPDEST SWAP1 POP DUP7 PUSH2 0x1B4 DUP5 PUSH2 0x1A6 DUP5 PUSH2 0x592 JUMP JUMPDEST PUSH2 0x7EB SWAP1 SWAP2 SWAP1 PUSH4 0xFFFFFFFF AND JUMP JUMPDEST PUSH2 0x1BE SWAP2 SWAP1 PUSH2 0x922 JUMP JUMPDEST SWAP5 POP POP POP POP POP SWAP3 SWAP2 POP POP JUMP JUMPDEST PUSH0 PUSH0 PUSH32 0x0 SWAP1 POP PUSH0 PUSH32 0x0 SWAP1 POP DUP4 DUP6 LT ISZERO PUSH2 0x21F JUMPI PUSH0 PUSH0 REVERT JUMPDEST PUSH0 PUSH2 0x23B PUSH2 0x236 DUP8 DUP5 PUSH2 0x2BB SWAP1 SWAP2 SWAP1 PUSH4 0xFFFFFFFF AND JUMP JUMPDEST PUSH2 0x2F0 JUMP JUMPDEST SWAP1 POP PUSH0 PUSH2 0x264 PUSH2 0x25F DUP8 DUP10 PUSH2 0x250 SWAP2 SWAP1 PUSH2 0x922 JUMP JUMPDEST DUP6 PUSH2 0x2BB SWAP1 SWAP2 SWAP1 PUSH4 0xFFFFFFFF AND JUMP JUMPDEST PUSH2 0x2F0 JUMP JUMPDEST SWAP1 POP PUSH0 DUP2 DUP4 PUSH2 0x273 SWAP2 SWAP1 PUSH2 0x95E JUMP JUMPDEST SWAP1 POP PUSH2 0x28A DUP2 DUP6 DUP8 PUSH2 0x4DA SWAP1 SWAP3 SWAP2 SWAP1 PUSH4 0xFFFFFFFF AND JUMP JUMPDEST SWAP6 POP POP POP POP POP POP SWAP3 SWAP2 POP POP JUMP JUMPDEST PUSH32 0x0 DUP2 JUMP JUMPDEST PUSH0 DUP2 PUSH0 NOT DIV DUP4 GT ISZERO PUSH2 0x2DB JUMPI DUP2 ISZERO PUSH2 0x2DA JUMPI PUSH4 0xBAC65E5B PUSH0 MSTORE PUSH1 0x4 PUSH1 0x1C REVERT JUMPDEST JUMPDEST PUSH8 0xDE0B6B3A7640000 DUP3 DUP5 MUL DIV SWAP1 POP SWAP3 SWAP2 POP POP JUMP JUMPDEST PUSH0 PUSH32 0xFFFFFFFFFFFFFFFFFFFFFFFFFFFFFFFFFFFFFFFFFFFFFFFDC0D0570925A462D7 DUP3 SGT ISZERO PUSH2 0x4D5 JUMPI PUSH9 0x755BF798B4A1BF1E5 DUP3 SLT PUSH2 0x336 JUMPI PUSH4 0xA37BFEC9 PUSH0 MSTORE PUSH1 0x4 PUSH1 0x1C REVERT JUMPDEST PUSH6 0x3782DACE9D9 PUSH1 0x4E DUP4 SWAP1 SHL DUP2 PUSH2 0x350 JUMPI PUSH2 0x34F PUSH2 0x99E JUMP JUMPDEST JUMPDEST SDIV SWAP2 POP PUSH0 PUSH1 0x60 PUSH12 0x800000000000000000000000 PUSH12 0xB17217F7D1CF79ABC9E3B398 PUSH1 0x60 DUP7 SWAP1 SHL DUP2 PUSH2 0x383 JUMPI PUSH2 0x382 PUSH2 0x99E JUMP JUMPDEST JUMPDEST SDIV ADD SWAP1 SAR SWAP1 POP PUSH12 0xB17217F7D1CF79ABC9E3B398 DUP2 MUL DUP4 SUB SWAP3 POP PUSH0 PUSH13 0x10FE68E7FD37D0007B713F7650 DUP5 ADD SWAP1 POP PUSH14 0x2D16720577BD19BF614176FE9EA PUSH1 0x60 DUP6 DUP4 MUL SWAP1 SAR ADD SWAP1 POP PUSH0 PUSH14 0x4A4FD9F2A8B96949216D2255A6C DUP6 DUP4 ADD SUB SWAP1 POP PUSH15 0x587F503BB6EA29D25FCB740196450 PUSH1 0x60 DUP4 DUP4 MUL SWAP1 SAR ADD SWAP1 POP PUSH26 0xD835EBBA824C98FB31B83B2CA45C000000000000000000000000 DUP6 DUP3 MUL ADD SWAP1 POP PUSH0 PUSH13 0x240C330E9FB2D9CBAF0FD5AAFC DUP7 SUB SWAP1 POP PUSH14 0x277594991CFC85F6E2461837CD9 PUSH1 0x60 DUP8 DUP4 MUL SWAP1 SAR ADD SWAP1 POP PUSH14 0x1A521255E34F6A5061B25EF1C9C4 PUSH1 0x60 DUP8 DUP4 MUL SWAP1 SAR SUB SWAP1 POP PUSH14 0xB1BBB201F443CF962F1A1D3DB4A5 PUSH1 0x60 DUP8 DUP4 MUL SWAP1 SAR ADD SWAP1 POP PUSH15 0x2C72388D9F74F51A9331FED693F15 PUSH1 0x60 DUP8 DUP4 MUL SWAP1 SAR SUB SWAP1 POP PUSH15 0x5180BB14799AB47A8A8CB2A527D57 PUSH1 0x60 DUP8 DUP4 MUL SWAP1 SAR ADD SWAP1 POP DUP1 DUP3 SDIV SWAP5 POP DUP4 PUSH1 0xC3 SUB PUSH21 0x29D9DC38563C32E5C2F6DC192EE70EF65F9978AF3 DUP7 MUL SWAP1 SHR SWAP5 POP POP POP POP POP JUMPDEST SWAP2 SWAP1 POP JUMP JUMPDEST PUSH0 DUP3 DUP5 MUL SWAP1 POP PUSH1 0x1 ISZERO PUSH2 0x58B JUMPI DUP2 DUP4 DUP6 DUP4 DIV EQ DUP6 ISZERO OR MUL PUSH2 0x585 JUMPI PUSH0 NOT DUP4 DUP6 MULMOD DUP2 DUP2 LT DUP3 ADD DUP2 SUB DUP4 DUP6 DUP8 MULMOD DUP5 PUSH0 SUB DUP6 AND DUP3 DUP7 GT PUSH2 0x51E JUMPI PUSH4 0xAE47F702 PUSH0 MSTORE PUSH1 0x4 PUSH1 0x1C REVERT JUMPDEST DUP1 DUP7 DIV SWAP6 POP DUP6 PUSH1 0x3 MUL PUSH1 0x2 XOR DUP1 DUP8 MUL PUSH1 0x2 SUB DUP2 MUL SWAP1 POP DUP1 DUP8 MUL PUSH1 0x2 SUB DUP2 MUL SWAP1 POP DUP1 DUP8 MUL PUSH1 0x2 SUB DUP2 MUL SWAP1 POP DUP1 DUP8 MUL PUSH1 0x2 SUB DUP2 MUL SWAP1 POP DUP1 DUP8 MUL PUSH1 0x2 SUB DUP2 MUL SWAP1 POP DUP1 DUP2 DUP9 MUL PUSH1 0x2 SUB MUL DUP3 DUP5 DUP9 SUB DIV PUSH1 0x1 DUP5 DUP6 PUSH0 SUB DIV ADD DUP9 DUP7 GT DUP8 SUB MUL OR MUL SWAP6 POP POP POP POP POP POP PUSH2 0x58B JUMP JUMPDEST DUP2 DUP2 DIV SWAP1 POP JUMPDEST SWAP4 SWAP3 POP POP POP JUMP JUMPDEST PUSH0 DUP2 PUSH16 0xFFFFFFFFFFFFFFFFFFFFFFFFFFFFFFFF LT PUSH1 0x7 SHL SWAP1 POP DUP2 DUP2 SHR PUSH8 0xFFFFFFFFFFFFFFFF LT PUSH1 0x6 SHL DUP2 OR SWAP1 POP DUP2 DUP2 SHR PUSH4 0xFFFFFFFF LT PUSH1 0x5 SHL DUP2 OR SWAP1 POP DUP2 DUP2 SHR PUSH2 0xFFFF LT PUSH1 0x4 SHL DUP2 OR SWAP1 POP DUP2 DUP2 SHR PUSH1 0xFF LT PUSH1 0x3 SHL DUP2 OR SWAP1 POP PUSH0 DUP3 SGT PUSH2 0x5FE JUMPI PUSH4 0x1615E638 PUSH0 MSTORE PUSH1 0x4 PUSH1 0x1C REVERT JUMPDEST PUSH32 0xF8F9F9FAF9FDFAFBF9FDFCFDFAFBFCFEF9FAFDFAFCFCFBFEFAFAFCFBFFFFFFFF PUSH16 0x8421084210842108CC6318C6DB6D54BE DUP4 DUP4 SHR SHR PUSH1 0x1F AND BYTE DUP2 XOR SWAP1 POP DUP2 DUP2 SHL PUSH1 0x9F SHR SWAP2 POP PUSH13 0x8C3F38E95A6B1FF2AB1C3B3437 DUP3 DUP4 DUP5 DUP6 PUSH13 0x29508E458543D8AA4DF2ABEE78 ADD MUL PUSH1 0x60 SAR PUSH14 0x139601A2EFABE717E604CBB4894 ADD MUL PUSH1 0x60 SAR PUSH14 0x2247F7A7B6594320649AA03ABA1 ADD MUL PUSH1 0x60 SAR SUB PUSH14 0x2384773BDF1AC5676FACCED6091 DUP4 DUP3 MUL PUSH1 0x60 SAR SUB SWAP1 POP PUSH13 0xB9A025D814B29C212B8B1A07CE DUP4 DUP3 MUL PUSH1 0x60 SAR SUB SWAP1 POP PUSH13 0xA09507084CC699BB0E71EA86A PUSH1 0x60 SHL DUP4 DUP3 MUL SUB SWAP1 POP DUP3 PUSH13 0x465772B2BBBB5F824B15207A30 ADD DUP1 DUP5 MUL PUSH1 0x60 SAR PUSH14 0x388EAA27412D5ACA026815D636E ADD SWAP1 POP DUP1 DUP5 MUL PUSH1 0x60 SAR PUSH14 0xDF99AC502031BF953EFF472FDCC ADD SWAP1 POP DUP1 DUP5 MUL PUSH1 0x60 SAR PUSH14 0x13CDFFB29D51D99322BDFF5F2211 ADD SWAP1 POP DUP1 DUP5 MUL PUSH1 0x60 SAR PUSH14 0xA0F742023DEF783A307A986912E ADD SWAP1 POP DUP1 DUP5 MUL PUSH1 0x60 SAR PUSH14 0x1920D8043CA89B5239253284E42 ADD SWAP1 POP DUP1 DUP5 MUL PUSH1 0x60 SAR PUSH13 0xB7A86D7375468FAC667A0A527 ADD SWAP1 POP DUP1 DUP3 SDIV SWAP2 POP DUP2 PUSH18 0x1340DAA0D5F769DBA1915CEF59F0815A5506 MUL SWAP2 POP DUP2 DUP4 PUSH1 0x9F SUB PUSH30 0x267A36C0C95B3975AB3EE5B203A7614A3F75373F047D803AE7B6687F2B3 MUL ADD SWAP2 POP DUP2 PUSH30 0x57115E47018C7177EEBF7CD370A3356A1B7863008A5AE8028C72B8864284 ADD SWAP2 POP DUP2 PUSH1 0xAE SAR SWAP3 POP POP POP SWAP2 SWAP1 POP JUMP JUMPDEST PUSH0 PUSH8 0xDE0B6B3A7640000 PUSH0 NOT DIV PUSH1 0x1 ADD DUP4 LT DUP3 MUL PUSH2 0x810 JUMPI PUSH4 0x7C5F487D PUSH0 MSTORE PUSH1 0x4 PUSH1 0x1C REVERT JUMPDEST DUP2 PUSH8 0xDE0B6B3A7640000 DUP5 MUL DIV SWAP1 POP SWAP3 SWAP2 POP POP JUMP JUMPDEST PUSH0 DUP2 SWAP1 POP SWAP2 SWAP1 POP JUMP JUMPDEST PUSH2 0x837 DUP2 PUSH2 0x825 JUMP JUMPDEST DUP3 MSTORE POP POP JUMP JUMPDEST PUSH0 PUSH1 0x20 DUP3 ADD SWAP1 POP PUSH2 0x850 PUSH0 DUP4 ADD DUP5 PUSH2 0x82E JUMP JUMPDEST SWAP3 SWAP2 POP POP JUMP JUMPDEST PUSH0 PUSH0 REVERT JUMPDEST PUSH2 0x863 DUP2 PUSH2 0x825 JUMP JUMPDEST DUP2 EQ PUSH2 0x86D JUMPI PUSH0 PUSH0 REVERT JUMPDEST POP JUMP JUMPDEST PUSH0 DUP2 CALLDATALOAD SWAP1 POP PUSH2 0x87E DUP2 PUSH2 0x85A JUMP JUMPDEST SWAP3 SWAP2 POP POP JUMP JUMPDEST PUSH0 PUSH0 PUSH1 0x40 DUP4 DUP6 SUB SLT ISZERO PUSH2 0x89A JUMPI PUSH2 0x899 PUSH2 0x856 JUMP JUMPDEST JUMPDEST PUSH0 PUSH2 0x8A7 DUP6 DUP3 DUP7 ADD PUSH2 0x870 JUMP JUMPDEST SWAP3 POP POP PUSH1 0x20 PUSH2 0x8B8 DUP6 DUP3 DUP7 ADD PUSH2 0x870 JUMP JUMPDEST SWAP2 POP POP SWAP3 POP SWAP3 SWAP1 POP JUMP JUMPDEST PUSH32 0x4E487B7100000000000000000000000000000000000000000000000000000000 PUSH0 MSTORE PUSH1 0x11 PUSH1 0x4 MSTORE PUSH1 0x24 PUSH0 REVERT JUMPDEST PUSH0 PUSH2 0x8F9 DUP3 PUSH2 0x825 JUMP JUMPDEST SWAP2 POP PUSH2 0x904 DUP4 PUSH2 0x825 JUMP JUMPDEST SWAP3 POP DUP3 DUP3 ADD SWAP1 POP DUP1 DUP3 GT ISZERO PUSH2 0x91C JUMPI PUSH2 0x91B PUSH2 0x8C2 JUMP JUMPDEST JUMPDEST SWAP3 SWAP2 POP POP JUMP JUMPDEST PUSH0 PUSH2 0x92C DUP3 PUSH2 0x825 JUMP JUMPDEST SWAP2 POP PUSH2 0x937 DUP4 PUSH2 0x825 JUMP JUMPDEST SWAP3 POP DUP3 DUP3 SUB SWAP1 POP DUP2 DUP2 GT ISZERO PUSH2 0x94F JUMPI PUSH2 0x94E PUSH2 0x8C2 JUMP JUMPDEST JUMPDEST SWAP3 SWAP2 POP POP JUMP JUMPDEST PUSH0 DUP2 SWAP1 POP SWAP2 SWAP1 POP JUMP JUMPDEST PUSH0 PUSH2 0x968 DUP3 PUSH2 0x955 JUMP JUMPDEST SWAP2 POP PUSH2 0x973 DUP4 PUSH2 0x955 JUMP JUMPDEST SWAP3 POP DUP3 DUP3 SUB SWAP1 POP DUP2 DUP2 SLT PUSH0 DUP5 SLT AND DUP3 DUP3 SGT PUSH0 DUP6 SLT ISZERO AND OR ISZERO PUSH2 0x998 JUMPI PUSH2 0x997 PUSH2 0x8C2 JUMP JUMPDEST JUMPDEST SWAP3 SWAP2 POP POP JUMP JUMPDEST PUSH32 0x4E487B7100000000000000000000000000000000000000000000000000000000 PUSH0 MSTORE PUSH1 0x12 PUSH1 0x4 MSTORE PUSH1 0x24 PUSH0 REVERT INVALID LOG2 PUSH5 0x6970667358 0x22 SLT KECCAK256 SWAP7 0xC6 SGT PUSH14 0x703CE9B34ABB6CDD7C9B3BBC17EE 0xEB ADDMOD 0xBF STOP LOG1 STOP 0xD3 0x29 RETF 0x21 EXTCODECOPY PUSH24 0x5ED064736F6C634300081E00330000000000000000000000 "
		},
		"gasEstimates": {
			"creation": {
				"codeDepositCost": "512200",
				"executionCost": "infinite",
				"totalCost": "infinite"
			},
			"external": {
				"A()": "infinite",
				"B()": "infinite",
				"getAmountOut(uint256,uint256)": "infinite",
				"getFundsReceived(uint256,uint256)": "infinite"
			}
		},
		"methodIdentifiers": {
			"A()": "f446c1d0",
			"B()": "32e7c5bf",
			"getAmountOut(uint256,uint256)": "7cabb7cf",
			"getFundsReceived(uint256,uint256)": "901ce73e"
		}
	},
	"abi": [
		{
			"inputs": [
				{
					"internalType": "uint256",
					"name": "_a",
					"type": "uint256"
				},
				{
					"internalType": "uint256",
					"name": "_b",
					"type": "uint256"
				}
			],
			"stateMutability": "nonpayable",
			"type": "constructor"
		},
		{
			"inputs": [],
			"name": "A",
			"outputs": [
				{
					"internalType": "uint256",
					"name": "",
					"type": "uint256"
				}
			],
			"stateMutability": "view",
			"type": "function"
		},
		{
			"inputs": [],
			"name": "B",
			"outputs": [
				{
					"internalType": "uint256",
					"name": "",
					"type": "uint256"
				}
			],
			"stateMutability": "view",
			"type": "function"
		},
		{
			"inputs": [
				{
					"internalType": "uint256",
					"name": "x0",
					"type": "uint256"
				},
				{
					"internalType": "uint256",
					"name": "deltaY",
					"type": "uint256"
				}
			],
			"name": "getAmountOut",
			"outputs": [
				{
					"internalType": "uint256",
					"name": "deltaX",
					"type": "uint256"
				}
			],
			"stateMutability": "view",
			"type": "function"
		},
		{
			"inputs": [
				{
					"internalType": "uint256",
					"name": "x0",
					"type": "uint256"
				},
				{
					"internalType": "uint256",
					"name": "deltaX",
					"type": "uint256"
				}
			],
			"name": "getFundsReceived",
			"outputs": [
				{
					"internalType": "uint256",
					"name": "deltaY",
					"type": "uint256"
				}
			],
			"stateMutability": "view",
			"type": "function"
		}
	]
}