{
	"data": {
		"bytecode": {
			"linkReferences": {},
			"object": "6080604052348015600e575f5ffd5b506102fa8061001c5f395ff3fe608060405234801561000f575f5ffd5b506004361061004a575f3560e01c806342e49d5a1461004e578063828f3a9c1461006c578063bc3c39cb1461009c578063bfe60856146100cc575b5f5ffd5b6100566100ea565b6040516100639190610187565b60405180910390f35b610086600480360381019061008191906101ce565b6100f7565b6040516100939190610187565b60405180910390f35b6100b660048036038101906100b191906101ce565b61012b565b6040516100c39190610187565b60405180910390f35b6100d461015f565b6040516100e19190610187565b60405180910390f35b6801158e460913d0000081565b5f6801158e460913d000006b0295be96e6406697200000008361011a9190610226565b6101249190610294565b9050919050565b5f6b0295be96e6406697200000006801158e460913d000008361014e9190610226565b6101589190610294565b9050919050565b6b0295be96e64066972000000081565b5f819050919050565b6101818161016f565b82525050565b5f60208201905061019a5f830184610178565b92915050565b5f5ffd5b6101ad8161016f565b81146101b7575f5ffd5b50565b5f813590506101c8816101a4565b92915050565b5f602082840312156101e3576101e26101a0565b5b5f6101f0848285016101ba565b91505092915050565b7f4e487b71000000000000000000000000000000000000000000000000000000005f52601160045260245ffd5b5f6102308261016f565b915061023b8361016f565b92508282026102498161016f565b915082820484148315176102605761025f6101f9565b5b5092915050565b7f4e487b71000000000000000000000000000000000000000000000000000000005f52601260045260245ffd5b5f61029e8261016f565b91506102a98361016f565b9250826102b9576102b8610267565b5b82820490509291505056fea2646970667358221220b44c01f1cdc22cbc10c442213aa5289cda9622272bbd9e75ea544f3aa78ded1d64736f6c634300081e0033",
			"opcodes": "PUSH1 0x80 PUSH1 0x40 MSTORE CALLVALUE DUP1 ISZERO PUSH1 0xE JUMPI PUSH0 PUSH0 REVERT JUMPDEST POP PUSH2 0x2FA DUP1 PUSH2 0x1C PUSH0 CODECOPY PUSH0 RETURN INVALID PUSH1 0x80 PUSH1 0x40 MSTORE CALLVALUE DUP1 ISZERO PUSH2 0xF JUMPI PUSH0 PUSH0 REVERT JUMPDEST POP PUSH1 0x4 CALLDATASIZE LT PUSH2 0x4A JUMPI PUSH0 CALLDATALOAD PUSH1 0xE0 SHR DUP1 PUSH4 0x42E49D5A EQ PUSH2 0x4E JUMPI DUP1 PUSH4 0x828F3A9C EQ PUSH2 0x6C JUMPI DUP1 PUSH4 0xBC3C39CB EQ PUSH2 0x9C JUMPI DUP1 PUSH4 0xBFE60856 EQ PUSH2 0xCC JUMPI JUMPDEST PUSH0 PUSH0 REVERT JUMPDEST PUSH2 0x56 PUSH2 0xEA JUMP JUMPDEST PUSH1 0x40 MLOAD PUSH2 0x63 SWAP2 SWAP1 PUSH2 0x187 JUMP JUMPDEST PUSH1 0x40 MLOAD DUP1 SWAP2 SUB SWAP1 RETURN JUMPDEST PUSH2 0x86 PUSH1 0x4 DUP1 CALLDATASIZE SUB DUP2 ADD SWAP1 PUSH2 0x81 SWAP2 SWAP1 PUSH2 0x1CE JUMP JUMPDEST PUSH2 0xF7 JUMP JUMPDEST PUSH1 0x40 MLOAD PUSH2 0x93 SWAP2 SWAP1 PUSH2 0x187 JUMP JUMPDEST PUSH1 0x40 MLOAD DUP1 SWAP2 SUB SWAP1 RETURN JUMPDEST PUSH2 0xB6 PUSH1 0x4 DUP1 CALLDATASIZE SUB DUP2 ADD SWAP1 PUSH2 0xB1 SWAP2 SWAP1 PUSH2 0x1CE JUMP JUMPDEST PUSH2 0x12B JUMP JUMPDEST PUSH1 0x40 MLOAD PUSH2 0xC3 SWAP2 SWAP1 PUSH2 0x187 JUMP JUMPDEST PUSH1 0x40 MLOAD DUP1 SWAP2 SUB SWAP1 RETURN JUMPDEST PUSH2 0xD4 PUSH2 0x15F JUMP JUMPDEST PUSH1 0x40 MLOAD PUSH2 0xE1 SWAP2 SWAP1 PUSH2 0x187 JUMP JUMPDEST PUSH1 0x40 MLOAD DUP1 SWAP2 SUB SWAP1 RETURN JUMPDEST PUSH9 0x1158E460913D00000 DUP2 JUMP JUMPDEST PUSH0 PUSH9 0x1158E460913D00000 PUSH12 0x295BE96E640669720000000 DUP4 PUSH2 0x11A SWAP2 SWAP1 PUSH2 0x226 JUMP JUMPDEST PUSH2 0x124 SWAP2 SWAP1 PUSH2 0x294 JUMP JUMPDEST SWAP1 POP SWAP2 SWAP1 POP JUMP JUMPDEST PUSH0 PUSH12 0x295BE96E640669720000000 PUSH9 0x1158E460913D00000 DUP4 PUSH2 0x14E SWAP2 SWAP1 PUSH2 0x226 JUMP JUMPDEST PUSH2 0x158 SWAP2 SWAP1 PUSH2 0x294 JUMP JUMPDEST SWAP1 POP SWAP2 SWAP1 POP JUMP JUMPDEST PUSH12 0x295BE96E640669720000000 DUP2 JUMP JUMPDEST PUSH0 DUP2 SWAP1 POP SWAP2 SWAP1 POP JUMP JUMPDEST PUSH2 0x181 DUP2 PUSH2 0x16F JUMP JUMPDEST DUP3 MSTORE POP POP JUMP JUMPDEST PUSH0 PUSH1 0x20 DUP3 ADD SWAP1 POP PUSH2 0x19A PUSH0 DUP4 ADD DUP5 PUSH2 0x178 JUMP JUMPDEST SWAP3 SWAP2 POP POP JUMP JUMPDEST PUSH0 PUSH0 REVERT JUMPDEST PUSH2 0x1AD DUP2 PUSH2 0x16F JUMP JUMPDEST DUP2 EQ PUSH2 0x1B7 JUMPI PUSH0 PUSH0 REVERT JUMPDEST POP JUMP JUMPDEST PUSH0 DUP2 CALLDATALOAD SWAP1 POP PUSH2 0x1C8 DUP2 PUSH2 0x1A4 JUMP JUMPDEST SWAP3 SWAP2 POP POP JUMP JUMPDEST PUSH0 PUSH1 0x20 DUP3 DUP5 SUB SLT ISZERO PUSH2 0x1E3 JUMPI PUSH2 0x1E2 PUSH2 0x1A0 JUMP JUMPDEST JUMPDEST PUSH0 PUSH2 0x1F0 DUP5 DUP3 DUP6 ADD PUSH2 0x1BA JUMP JUMPDEST SWAP2 POP POP SWAP3 SWAP2 POP POP JUMP JUMPDEST PUSH32 0x4E487B7100000000000000000000000000000000000000000000000000000000 PUSH0 MSTORE PUSH1 0x11 PUSH1 0x4 MSTORE PUSH1 0x24 PUSH0 REVERT JUMPDEST PUSH0 PUSH2 0x230 DUP3 PUSH2 0x16F JUMP JUMPDEST SWAP2 POP PUSH2 0x23B DUP4 PUSH2 0x16F JUMP JUMPDEST SWAP3 POP DUP3 DUP3 MUL PUSH2 0x249 DUP2 PUSH2 0x16F JUMP JUMPDEST SWAP2 POP DUP3 DUP3 DIV DUP5 EQ DUP4 ISZERO OR PUSH2 0x260 JUMPI PUSH2 0x25F PUSH2 0x1F9 JUMP JUMPDEST JUMPDEST POP SWAP3 SWAP2 POP POP JUMP JUMPDEST PUSH32 0x4E487B7100000000000000000000000000000000000000000000000000000000 PUSH0 MSTORE PUSH1 0x12 PUSH1 0x4 MSTORE PUSH1 0x24 PUSH0 REVERT JUMPDEST PUSH0 PUSH2 0x29E DUP3 PUSH2 0x16F JUMP JUMPDEST SWAP2 POP PUSH2 0x2A9 DUP4 PUSH2 0x16F JUMP JUMPDEST SWAP3 POP DUP3 PUSH2 0x2B9 JUMPI PUSH2 0x2B8 PUSH2 0x267 JUMP JUMPDEST JUMPDEST DUP3 DUP3 DIV SWAP1 POP SWAP3 SWAP2 POP POP JUMP INVALID LOG2 PUSH5 0x6970667358 0x22 SLT KECCAK256 0xB4 0x4C ADD CALL 0xCD 0xC2 0x2C 0xBC LT 0xC4 TIMESTAMP 0x21 GASPRICE 0xA5 0x28 SWAP13 0xDA SWAP7 0x22 0x27 0x2B 0xBD SWAP15 PUSH22 0xEA544F3AA78DED1D64736F6C634300081E0033000000 "
		},
		"gasEstimates": {
			"creation": {
				"codeDepositCost": "152400",
				"executionCost": "194",
				"totalCost": "152594"
			},
			"external": {
				"FUNDING_GOAL()": "303",
				"FUNDING_SUPPLY()": "369",
				"calculateBuyReturn(uint256)": "infinite",
				"calculateSellReturn(uint256)": "infinite"
			}
		},
		"methodIdentifiers": {
			"FUNDING_GOAL()": "42e49d5a",
			"FUNDING_SUPPLY()": "bfe60856",
			"calculateBuyReturn(uint256)": "828f3a9c",
			"calculateSellReturn(uint256)": "bc3c39cb"
		}
	},
	"abi": [
		{
			"inputs": [],
			"name": "FUNDING_GOAL",
			"outputs": [
				{
					"internalType": "uint256",
					"name": "",
					"type": "uint256"
				}
			],
			"stateMutability": "view",
			"type": "function"
		},
		{
			"inputs": [],
			"name": "FUNDING_SUPPLY",
			"outputs": [
				{
					"internalType": "uint256",
					"name": "",
					"type": "uint256"
				}
			],
			"stateMutability": "view",
			"type": "function"
		},
		{
			"inputs": [
				{
					"internalType": "uint256",
					"name": "ethAmount",
					"type": "uint256"
				}
			],
			"name": "calculateBuyReturn",
			"outputs": [
				{
					"internalType": "uint256",
					"name": "",
					"type": "uint256"
				}
			],
			"stateMutability": "pure",
			"type": "function"
		},
		{
			"inputs": [
				{
					"internalType": "uint256",
					"name": "tokenAmount",
					"type": "uint256"
				}
			],
			"name": "calculateSellReturn",
			"outputs": [
				{
					"internalType": "uint256",
					"name": "",
					"type": "uint256"
				}
			],
			"stateMutability": "pure",
			"type": "function"
		}
	]
}